:10000000A4C40000C7C40000C5C40000C3C40000ED
:10001000C1C40000BFC40000BDC40000BBC40000D8
:10002000B9C40000B7C40000B5C40000B3C40000E8
:10003000B1C40000AFC400000C946709ABC4000059
:10004000A9C40000A7C40000A5C40000A3C4000008
:10005000A1C400009FC400009DC400009BC4000018
:1000600099C400000C9427330C946E3393C40000A1
:1000700091C400008FC400008DC400008BC4000038
:1000800089C4000087C4000085C4000083C4000048
:1000900081C400007FC400007DC400007BC4000058
:1000A00079C4000077C4000075C4000073C4000068
:1000B0000C94B5166FC400006DC400006BC4000042
:1000C00069C4000067C4000065C4000063C4000088
:1000D00061C400005FC400005DC400005BC4000098
:1000E00059C4000057C400008AC60000C1C6000001
:1000F00051C400004FC400004DC400004BC40000B8
:1001000049C4000047C4000045C4000043C40000C7
:1001100041C400003FC400003DC400003BC40000D7
:1001200039C4000037C4000035C4000033C40000E7
:1001300031C400002FC400002DC400002BC40000F7
:1001400029C4000027C4000025C400000C944016F8
:1001500021C400001FC400001DC400001BC4000017
:1001600019C4000017C4000015C4000013C4000027
:1001700011C400000FC400000DC400000BC4000037
:1001800009C4000007C4000005C4000003C4000047
:1001900001C40000FFC30000FDC30000FBC300005A
:1001A000F9C30000F7C30000F5C30000F3C300006B
:1001B000F1C30000EFC30000EDC30000EBC300007B
:1001C000E9C30000E7C30000E5C30000E3C300008B
:1001D000E1C30000DFC30000DDC30000DBC300009B
:1001E000D9C30000D7C30000D5C30000D3C30000AB
:1001F000D1C30000CFC30000CDC3000042F30C62A6
:10020000C63843340846130F69611B6BAE1F417833
:100210002970A0322A05335AFE2B4EB52C47160FF3
:100220004D480F4BB70F553F1059A91C520F0C5496
:10023000192356560D57800C58C61165160D66D6F3
:10024000266DC1306CE10C74D60975271978F30856
:100250007ACD2F000000072E050DD391FF08050071
:10026000000C0021656A2D3B1322F862073F181D20
:100270001CC700B0876BF8B611EA2A001F41000DB9
:100280002E2D07D3913D04320000060021656A55EA
:10029000E43023B900070018146C070090876BF84E
:1002A0005611E92A001F410000030F1E26270000F7
:1002B00000030F1E2536386700030F256740605086
:1002C00000030F275188838100030F2750C8C3C242
:1002D0000027000000000000006700000000000090
:1002E000005000000000000000810000000000003D
:1002F00000C2000000000000203D2000202F200050
:10030000504C4C300D0A00504C4C310D0A00203D31
:1003100020006E6100203D2000202F200043434438
:100320005F5632005620322E36372043534D343339
:1003300033005620322E36372043534D383638009E
:100340004C4F56460D0A00424F56460D0A000D2EE0
:100350002D07D3913D04320000060010B07155E422
:100360003023B900070018146C070090876BF8560B
:1003700011E92A001F41000D2E2D07D3913D0432B3
:100380000000060010ABA5550A3023B9000700187D
:10039000146C070090876BF85611E92A001F410082
:1003A000012E4604AA540FE0000000060021656AF1
:1003B00097831663B947070C29366C074091876B02
:1003C000F85611E92A001F410054585F494E49541C
:1003D0005F4552525F005472616E736D6974740DA3
:1003E0000A00636F6D6D616E646C696E6570617239
:1003F000616D657465723A20000D0A537472696EFE
:10040000676C656E6774683A2020202020000D0A12
:100410004E65787420436861726163746572202848
:10042000696E742920616674657220706172616DF5
:1004300065746572202873686F756C64206265202E
:100440006C696E6520656E642063686172616374B7
:100450006572293A20000D0A416D6F756E74206F28
:100460006620427974657320284865782920666F74
:10047000756E6420696E7369646520636F6D6D616C
:100480006E64206C696E6520706172616D65746563
:10049000723A2020202020202020202020000D0A39
:1004A000005469636B2054696D65723A20202020E6
:1004B00020202020202020000D0A004B65794F6667
:1004C0006654696D653A20202020202020202020BD
:1004D00020006D7365630D0A004B65794F666654A5
:1004E000696D6520696E207469636B733A20200022
:1004F0005B6865785D0D0A005469636B2054696D13
:1005000065723A2020202020202020202020005B1F
:100510006865785D0D0A00426C6F636B20537461EF
:1005200072742054696D653A2020202020005B6899
:1005300065785D0D0A004B65794F666654696D6597
:100540003A2020202020202020202020005B6865E9
:10055000785D0D0A007469636B732D426C6F636B79
:10056000537461727454696D653A20005B686578F4
:100570005D0D0A00426C6F636B320D0A00426C6FB6
:10058000636B330D0A004B6F7070205472616E7391
:100590006D69747420436F6D6D616E64206E6F744D
:1005A00020657175616C20746F200020427974653C
:1005B00073206F72204B6579636F646520697320C7
:1005C0006E6F206865782076616C75650D0A006B2A
:1005D00072452D52656365697665456E640D0A0046
:1005E0006B72532D526563656976655374617274DD
:1005F0000D0A0052585F494E49545F4552525F4DB3
:1006000041524353544154455F5258004B6F7070F0
:10061000205265636569766520537562436F6D6D21
:10062000616E6420556E6B6E6F776E0D0A004B6FB6
:10063000707020436F6D6D616E6420556E6B6E6FD0
:10064000776E0D0A00427974657320696E204669E1
:10065000666F3A20002020526563656976656420E4
:10066000446174613A20000D0A006B7200204368F7
:1006700065636B73756D204572726F722C204361D8
:100680006C63756C6174656420436B733A20000D74
:100690000A0000535300547D7DFFFF4B4B7E7E00CC
:1006A0004E2F41004E2F4100454F420D0A004E2F64
:1006B00041000B08105B11F81547191D1A1C1BC7C8
:1006C0001C001DB221B623EA0007022E030D04E927
:1006D00005CA070C0B060D210E650F6A10C8119391
:1006E000120315341733181819161B432156250009
:1006F000261129592C812D353EC34552523A434388
:10070000410D0A000007024604C605260B0610C864
:100710001193120313221534173F182819161B437F
:100720002156250026110D210E650F6A070C1607AC
:1007300020F81E871F6B29592C812D353EC3FF00E1
:100740004C454E4552520D0A004C4F56460D0A007C
:100750004C454E4552520D0A000302FF00000000B6
:100760000000000000000000000000000003021074
:10077000881182FF0000000000000000000000005F
:100780000003071088110B0D210E6B0FD01553FFBE
:1007900000000000000B060D210E650F6A170018FF
:1007A0001819161B431C6825002611000102460576
:1007B000D4042D0302070008021089115C120615EB
:1007C00056FF00737065636966792076616C6964B1
:1007D000206D6F6465206E756D6265720D0A000094
:1007E00001022E030104AA050F06FF070008000BF3
:1007F000060D210E740FAD104B11F8121613721561
:1008000041181819161B0323E9242A2500261F3E28
:10081000500001022E030104AA050F06FF0700087D
:10082000000B060D210E660F6610CA1193120613F7
:10083000521535181819161B0323E9242A250026FA
:100840001F3E500001022E0301045505F006FF076C
:100850000008000B060D210E660F99105911831226
:100860001E13521535181819161B0323E9242A25BF
:1008700000261F3E503F20280020697320756E6BB4
:100880006E6F776E2920557365206F6E65206F66D9
:1008900000313A0020402000203F000476059617E2
:1008A00000000602000B080C000D210E650F6A10F7
:1008B0006A114A1206132214F80A00154721B622BB
:1008C000101818192E1A6D1B041C091DB223EA24D6
:1008D0002A2500261F29592C812D352E09070408A9
:1008E00000090006FF3EC2FF0454053D1700000644
:1008F00002000B080C000D210E6B0FD0105C1104D0
:100900001206132214F80A00154421B622101818F2
:10091000192E1ABF1B431C091DB523EA242A2500E2
:10092000261F29592C812D352E090704080009009E
:1009300006FF3EC2FF534D4F444500544D4F4445C2
:10094000004F4646004F4646000011241FBECFEF21
:10095000DFE3DEBFCDBF00E00CBF18BE19BE1ABE7C
:100960001BBE10E2A0E0B0E2E4E8F0E800E00BBF5C
:1009700002C007900D92AC3EB107D9F71BBE2CE226
:10098000ACEEB0E201C01D92A036B207E1F7D2D1C1
:100990000C94404035CB809150008460809350008F
:1009A0008091510082FFFCCF809150008260809343
:1009B00050008091510081FFFCCF809156008093C0
:1009C000560082E1809365008AE78093660021E00B
:1009D000209360003FB7F89488ED90E0A0E4B0E089
:1009E0001BBEFD0184BF20833FBF8FE39FE10197C2
:1009F000F1F700C000008091400087E08093A200E2
:100A000088ED84BF83E2809380008091820080FD26
:100A1000FCCF089581E08CBFE0910020F09101208F
:100A2000199508958091780083FF0FC083E390E0CB
:100A3000DDD6882351F0809178008860809378001B
:100A400060E083E390E0CBD6E5CF089580E00895A1
:100A5000E0E6F6E080E18183858380EB818380E4BA
:100A6000828381E58093C00908958093C3098091B2
:100A7000C20987FFFCCF8091C3090895E0E8F6E042
:100A8000808581700895E0E8F6E080858695817024
:100A900008951092000A1092010A8093260A9093FA
:100AA000270A1092200A1092210A80910C0A816074
:100AB00080930C0A88E08093000A80910C0A80FDE4
:100AC00002C0A895FACF1092000A0895CF93DF9341
:100AD000EC018134910560F488EE93E09C01C29FA3
:100AE000C001C39F900DD29F900D1124D2DF05C08D
:100AF00088EE93E0CEDF2197D9F7DF91CF9108956B
:100B0000E0E0F8E010A211A228E020838FE39FE14B
:100B100086A397A3118281E08683E0E4F8E010A227
:100B200011A280838FE190E086A397A388EC809345
:100B30008001E0E4F9E010A211A2208380E593ECAB
:100B400086A397A3168208950895CF92DF92EF921D
:100B5000FF921F93CF93DF93EC016A017B01122F69
:100B6000CB01BA01969587957795679560587B4735
:100B7000814E9F4FA70196010E948D3C2150310963
:100B80003F832E8383E08D8388E18C83C1148BE4C3
:100B9000D806E104F10409F494C0D8F580E6C8163B
:100BA00089E0D806E104F10409F47BC0C8F488E5C3
:100BB000C81682E0D806E104F10409F4A6C080EB6F
:100BC000C81684E0D806E104F10409F467C08CE299
:100BD000C81681E0D806E104F10409F09FC05BC0AB
:100BE00080E8C81685E2D806E104F10409F461C082
:100BF00080E4C81688E3D806E104F10409F45DC076
:100C000080ECC81682E1D806E104F10409F086C040
:100C10004CC0C11481EED806E104F10409F461C0AE
:100C2000C0F4C11486E9D806E104F10409F451C006
:100C30008DE3C81686E9D806E104F10409F44DC035
:100C400080E8C81680E7D806E104F10409F066C020
:100C50003CC0C11482ECD80681E0E806F10409F436
:100C600048C048F4C1148CE2D80681E0E806F104DB
:100C700009F054C03AC0C11484E8D80683E0E806FD
:100C8000F104D9F1C11488E0D80687E0E806F10440
:100C900009F044C036C08FEC90E009C08CE090E0D1
:100CA00036C08CE090E026E033C08CE090E025E098
:100CB0002FC08CE090E024E02BC08AE890E020E098
:100CC00027C08CE090E023E023C089E890E02FEF7C
:100CD0001FC08CE090E022E01BC08AED9CE02AEF70
:100CE00017C087E890E02EEF13C08CE090E021E081
:100CF0000FC083E890E02DEF0BC08BE790E02CEF66
:100D000007C08BE690E02BEF03C089E190E027E07D
:100D10008E832295207F292B2F831D83DF91CF91F6
:100D20001F91FF90EF90DF90CF90089539D480E02D
:100D300090E0089577DE2FDE07DFE2DE60E070E00E
:100D400086E996E00E947F3FC4E0C093610680DEA2
:100D50009AD60E94E33480E096E92BD00E94C831F5
:100D600078940E94B9220E949D1181E590E38093BE
:100D70001C2490931D240E943B1889E08093EF204F
:100D8000C093660614D034D00E94A71325D30E94C6
:100D900020270E94C9190E94E1270E94812B0E94EE
:100DA000BC360E9498320E947D2E02D0ECCF08956E
:100DB0000895AC01E0E8F6E088E0818384E0828376
:100DC00060E070E023E080EA9AE0BFDEE0EAFAE06B
:100DD00083818F7C8061838308958091BB258823E4
:100DE00031F08091A30A8C7F81608093A30A0895DB
:100DF000E0911C24F0911D2481E01995EECF1F9203
:100E00000F920FB60F92112408B60F9218BE09B6B2
:100E10000F9219BE0BB60F921BBE2F933F934F93A9
:100E20005F936F937F938F939F93AF93BF93EF9352
:100E3000FF93E0EAFAE080E8818360818CE396E248
:100E40004CD6FF91EF91BF91AF919F918F917F9180
:100E50006F915F914F913F912F910F900BBE0F902B
:100E600009BE0F9008BE0F900FBE0F901F901895EF
:100E70001F920F920FB60F92112408B60F9218BE50
:100E800009B60F9219BE0BB60F921BBE2F933F935C
:100E90004F935F936F937F938F939F93AF93BF9382
:100EA000EF93FF938091BB25882331F089EB95E286
:100EB0002AD68093A00A05C08091A30A8C7F8093D4
:100EC000A30AFF91EF91BF91AF919F918F917F9175
:100ED0006F915F914F913F912F910F900BBE0F90AB
:100EE00009BE0F9008BE0F900FBE0F901F9018956F
:100EF000A1E0B0E0EEE7F7E00C94BB3C482F8A306D
:100F000008F048E088E0489F70011124E8EAF2E028
:100F1000EE0EFF1E8BE290E0F70164918C010F5FF3
:100F20001F4F49835CD4FFEFEF1AFF0AC8014981C4
:100F30000333110589F74550453010F461E101C0D4
:100F400067E184E290E04BD42196E6E00C94D43C37
:100F5000CF93DF9382E090E0FC01E358FD4F649172
:100F6000EC0121963CD4CE01CB32D105A9F787E321
:100F700090E0FC01E15EFD4F6491EC0121962FD4DD
:100F8000CE01C036D105A9F761DD8823C1F060E14B
:100F90008FE090E024D460EB80E190E020D461E722
:100FA00081E190E01CD460E184E490E018D460EB2F
:100FB00085E490E014D461E786E490E010D488E002
:100FC00097DFDF91CF9108951F93CF93DF93C0E612
:100FD000D6E010E11E83806C48DD80E046DD1D8395
:100FE000DF91CF911F910895EF92FF921F93CF93BE
:100FF000DF931F92CDB7DEB790E6E92E96E0F92E8B
:1010000010E1F7011683806469832FDD6981862FE3
:101010002CDDF70115830F90DF91CF911F91FF9089
:10102000EF9008951F93CF93DF93C0E6D6E010E1D1
:101030001E831BDD1D83DF91CF911F910895CF93F8
:10104000CFEF09C08AE090E024DDC11104C082E046
:1010500080938B0607C084E3E5DFC1508077803141
:1010600089F7F5CFCF910895A2E0B0E0EAE3F8E088
:101070000C94BD3C8C01FC0181818737E9F441E08F
:10108000BE016F5F7F4FC80102964DD3892BA1F03F
:1010900041E0BE016E5F7F4FC801049644D3892BA7
:1010A00059F06A818981A0DF83E3BCDFC8DF8981D1
:1010B00036D38A8134D32CC041E0BE016E5F7F4FAE
:1010C000C801019630D3892B21F18A81893969F4CD
:1010D00010E0812F79DF23D3812F8770873009F4C7
:1010E000AAD21F5F1033A9F714C06EDF182F83E454
:1010F00057D28A8114D388EF92E090D2812F0FD3F8
:101100008CEF92E08BD240E262E0812F90E097D2A8
:1011100092D22296E4E00C94D63CCF9310928B06A8
:1011200086E380DFCFEF05C08AE090E0B2DCCC231D
:1011300031F085E377DFC15080778032A9F7CF9116
:101140000895EF92FF920F931F93CF93DF93EC01DB
:101150001092722210E11093610610928B06109388
:1011600065068EE190E095DC109366068EE190E0D6
:1011700090DC109365068DE290E08BDC80E352DF1B
:1011800084E690E0A3DC1093660680E46EDC8E01BA
:10119000075D1F4F7E018FEFE81AF80ACE0126D3B4
:1011A00064DCE701E016F106A9F780E180936506AB
:1011B000809366068EE759DC8BE290E0EC01219685
:1011C00015D353DCCE01C333D105C1F780E1809341
:1011D000650683E327DF81E090E078DCCDB7DEB7FA
:1011E000E6E00C94D43CA1E0B0E0E9EFF8E00C9428
:1011F000BF3C22E0298341E0BE016F5F7F4F019633
:1012000092D2898175DE82E090E09BDF2196E2E058
:101210000C94D83C86E306DF10921E2410927022B4
:1012200010927222089582E090E08BDF81E080933B
:101230001E24109270221092722208951F93CF9351
:10124000DF93D82F162FC0E085E3BEDE8D1739F06F
:10125000812F90E01EDCC150B9F781E001C080E031
:10126000DF91CF911F91089585E2AEDE8F3311F0AB
:1012700080E0089586E3D6DE8091EC20811104C0E1
:1012800080E093E0CBD102C08DE3CCDE83E3CADE05
:1012900064E081E0D3DF85E297DE8F3349F7809108
:1012A000EC20811103C087E093E0B8D181E008957C
:1012B00085E38ADE8D3051F485E286DE8F3331F4AA
:1012C000D3DF84E3AFDE80778031D9F708951F92B2
:1012D0000F920FB60F92112408B60F9218BE09B6DE
:1012E0000F9219BE0BB60F921BBE8F939F93AF93B5
:1012F000BF93EF93FF938091202490912124A0919C
:101300002224B09123240196A11DB11D8093202495
:1013100090932124A0932224B093232480911F240E
:101320008F5F80931F24E7ECF4E28081918118168F
:1013300019061CF4019780839183369684E2EF3D71
:10134000F80799F78091E1249091E224009729F021
:1013500001978093E1249093E2248091F4248F3FBD
:1013600019F081508093F424FF91EF91BF91AF91D8
:101370009F918F910F900BBE0F9009BE0F9008BEEA
:101380000F900FBE0F901F9018952FB7F8944091B3
:101390002024509121246091222470912324FC0167
:1013A00040835183628373832FBF0895A4E0B0E02C
:1013B000ECEDF9E00C94BF3CCE010196E6DF8C81A8
:1013C000AED18B81ACD18A81AAD18981A8D133D108
:1013D0002496E2E00C94D83C1F93CF93DF93809146
:1013E000202490912124A0912224B09123242091A3
:1013F000ED20281709F45EC08091202490912124CB
:10140000A0912224B09123248093ED20A895C7ECCD
:10141000D4E210E028813981232B19F4812F0E9416
:101420004B251F5F26961430A9F78091E1249091F7
:10143000E224892B11F40E94A3258091F4248111C8
:1014400002C00E94FE258091B324882339F0815088
:101450008093B324811102C00E94621A80911F24DC
:101460008D3740F110921F248091022081FF03C02C
:1014700084E0809367068091242490912524843809
:1014800023E0920728F40196809324249093252446
:101490008091EE208F5F8093EE208C3359F4109270
:1014A000EE208091C6248F5F8093C6248C3310F089
:1014B0001092C624DF91CF911F910895CF93DF93AF
:1014C000FC018381843509F068C0808120E030E030
:1014D000422F435F481750F050E090E09C012F509E
:1014E00031094217530709F058C00AC02F5F3F4F18
:1014F000DF01A20FB31F1F969C919B3349F7ECCFDE
:10150000AC014E5051094E0F5F1FDA0113962C911A
:10151000243509F042C0DC011B97AE0FBF1F348198
:1015200011962C911197321338C0358112962C9157
:101530001297321332C0368113962C9113973213BF
:101540002CC0378114962C911497321326C04197E2
:1015500015962C9115978E0F9F1FEC012B831696D5
:101560008C911697EA01898319968C9119978A8331
:101570001A968C911A978B831B968C911B978C8350
:101580001C968C911C978D831D968C918E838081E7
:101590008A50808382818A508283DF91CF9108951F
:1015A000CF93C82F8091EF2080FF0EC08091BB2584
:1015B0008E3730F087FD08C0CD3011F0CA3021F4ED
:1015C0006C2F89EB95E289D28091BE248823C9F0E3
:1015D0008091EF2083FF15C0CA3099F0CD3011F40F
:1015E0006BE301C06C2F8EE294E277D2CD3019F418
:1015F0008EE294E263DF83E08093B32482E0809301
:10160000B924CF910895CF93DF93EC0101C0C8DFD7
:1016100089918111FCCFDF91CF910895CF93DF9312
:10162000EC0102C0BDDF2196FE0184918111FACF49
:10163000DF91CF9108958DE0B3DF8AE0B1CFA6E0CE
:10164000B0E0E5E2FBE00C94BD3C062F1E8215E005
:101650002AE030E01150E1E0F0E0EC0FFD1FE10F77
:10166000F11DB9010E94663C805D8083CB01015071
:10167000009759F01111EECF08C01150E1E0F0E0F1
:10168000EC0FFD1FE10FF11D4083015007FD02C06B
:101690001111F3CF81E090E08C0F9D1F810F911D00
:1016A000B2DF2696E4E00C94D63CA5E0B0E0EBE592
:1016B000FBE00C94BF3C1D8224E0382F3F7021508A
:1016C000E22FF0E03A3010F4305D01C0395CA1E067
:1016D000B0E0AC0FBD1FEA0FFB1F308334E09695DE
:1016E00087953A95E1F76150009739F708C0215086
:1016F000E1E0F0E0EC0FFD1FE20FF11D40836150CF
:1017000067FD02C02111F3CF81E090E08C0F9D1F97
:10171000820F911D78DF2596E2E00C94D83C40E3DF
:1017200062E090E0C2CFFB0122C0213608F02052D7
:10173000A22FA053AA3010F42A2F05C0A22FA15423
:10174000A63018F42753232B05C0203291F02A33FA
:1017500081F005C0552331F02193415041F4E61B3F
:10176000F70B0DC0322F3295307F51E002C050E0B0
:1017700030E0DC012D91CD012111D7CFF0CFCF0189
:10178000089520E030E05AE00EC0E42FE053EA3044
:1017900050F4F9015E9F90015F9F300D112420539A
:1017A0003109240F311DFC014191CF014111EDCFD1
:1017B000FB01208331830895982F92959F709A3072
:1017C00010F4905D01C0995CFB0190838F708A30AA
:1017D00010F4805D01C0895CFB01818308950E9443
:1017E000D93F8091CF0187FDFCCF08950C94C93F6C
:1017F00008951F93CF93DF930AC0EC012196F6DF83
:101800008EDF112311F08AE3CBDE612FCE01162F7C
:1018100011506111F2CFDF91CF911F910895ABE08C
:10182000B0E0E5E1FCE00C94BD3CFC0121812837EF
:1018300079F52281222309F438C023812223A9F1DA
:1018400041E0BE01655F7F4F02966DDF8B8567DFEC
:101850008EE093E0E3DE8E010F5F1F4FB8018B85B2
:101860000E94FD34811110C01B860AC0F801E80FE8
:10187000F11D808154DF80E293DE8B858F5F8B8743
:101880008B858A3098F337C082E193E0C7DE33C09E
:101890002D3421F466E08AEF97E005C0203529F465
:1018A00060E18AED97E0A5DF26C01A82198242E046
:1018B000BE016F5F7F4F019636DF823011F48A815F
:1018C00001C089818B878B8590E090DF182F82E59E
:1018D00067DE40E364E08B8590E0E7DE85E193E03E
:1018E0009DDE812F1CDF89E193E098DE40E262E01B
:1018F000812F90E0A4DE9FDE2B96E4E00C94D63C92
:10190000A6E0B0E0E6E8FCE00C94B93C8C01FC01F8
:1019100081818837D1F482818823B9F0838188233B
:10192000A1F08481882389F041E0BE016F5F7F4F81
:10193000C8010396F8DE41E050E0BE016F5F7F4FC3
:10194000F80182810E942C3538C043E0BE016F5FF0
:101950007F4FC8010196E7DE823078F1298182301D
:1019600019F4C22ED12C04C0D22EC12C2A81C22A35
:101970007C01FF24FE01EE0DFF1D6081C6012FDFFB
:10198000EE0CFF1CFFEFEF1AFF0AE00EF11E11C074
:1019900041E0BE016F5F7F4FC701C5DE892B69F053
:1019A0008FEFC81AD80A6981C60119DFE2E0EE0E8E
:1019B000F11CF70180818111EBCF2696E8E00C94B1
:1019C000D23C41E062E070E20196ADDE609102201F
:1019D00084E060FF03C08093650602C080936606C2
:1019E00084E390E0FCCEA1E0B0E0E9EFFCE00C94F1
:1019F000BF3C1982009731F041E0BE016F5F7F4F1D
:101A0000019691DE89818F3F09F4FFCF882321F071
:101A100061E083E390E0E3DEF89493E088ED08B6BC
:101A200084BF90938000A89508BEFFCFCF93DF932B
:101A3000EC0162E080E090E0D2DE63E481E090E0DF
:101A4000CEDE86DA60E080E690E0C9DE60E081E626
:101A500090E0C5DE60E083E390E0C1DE62E084E315
:101A600090E0BDDE60E080E690E0B9DE60E081E617
:101A700090E0B5DE8981883719F080E090E0B3DF2F
:101A8000DF91CF91089580E090E0B0DE823029F4BC
:101A900081E090E0ABDE833419F080E090E0C6DFB7
:101AA00084E390E0A3DE809302200895FC0181810D
:101AB000883419F48DE193E009C00E94260588233B
:101AC00019F084E293E002C082E393E0A7DDB3CD96
:101AD000FC011282108211820895FC018FB7F894E4
:101AE000928197FD0EC09F5F92839081DF01A90FC5
:101AF000B11D13966C939F5F903811F0908301C0D5
:101B000010828FBF0895FC019FB7F89482818111E4
:101B100001C00EC0815082832181DF01A20FB11D5F
:101B200013968C912F5F203811F0218301C0118210
:101B30009FBF0895FA013081882369F0DB01A30F6C
:101B4000B11DE1E0F0E0022E01C0EE0F0A94EAF7C9
:101B50009C919E2B9C93222319F0822F81500BC0C5
:101B6000832F8F5F8C3010F4FA018083FB01E80F24
:101B7000F11D108287E090E00895CF93C82F81E097
:101B800080938506CC2319F08091F42002C08091C7
:101B9000F22020E1829FC00111240E94490581E0CA
:101BA00080938606CC2319F08091F32002C08091A7
:101BB000F12020E1829FC00111240E944905CF91AC
:101BC0000895A6E0B0E0E7EEFDE00C94AF3C6C01B8
:101BD0006983942EA22EEA82842F90E08D839E83C7
:101BE00020912424309125240296089F802D1124D1
:101BF000992787FD90952817390720F480E493E012
:101C00000DDD84C0281B390B209324243093252418
:101C100084E08093650680917222882339F01092C7
:101C2000722285EE90E2B2D311E001C010E0809103
:101C30001E24811101C0F7DA70DAF981EF2FF0E08C
:101C4000EB83FC83EE24E394F12CB12CC601890DC7
:101C5000911D97FC9A954C01612C712C05C080E078
:101C60008CDF9FEF691A790AEB81FC816E167F0683
:101C7000B4F3F981FF2311F081E07FDF412C512C77
:101C800017C097E0292E312C3601640C751CC70152
:101C9000022C01C0880F0A94EAF7F301908189238E
:101CA0006CDFF1E02F1A310890F79FEF491A590ABB
:101CB000ED81FE814E165F0624F387E0682E712CBD
:101CC0000DC0C701062C01C0880F0A94EAF7F40181
:101CD0009081892352DFF1E06F1A7108A614B704CE
:101CE00084F38A8190E00E946605015009F0B4CF28
:101CF00080912724882311F0A2D902C086E392D9CB
:101D000011110E94902984E0809366062696E2E1F4
:101D10000C94C83CADE0B0E0E0E9FEE00C94B23CCD
:101D20007C01162F842F022F6701C60ED11C462F6F
:101D3000B70141D3D6018C931F5F1D8619825E2C9B
:101D4000670127E088248394912C32C047E0A42EB9
:101D5000B12C3701680E711CF4010A2C01C0EE0F82
:101D60000A94EAF7D3018C91AE01435F5F4FBE0145
:101D70006F5F7F4F8E23DEDE282FB1E0AB1AB108F4
:101D800058F7D601ED916D010E2EE295E0250E2E4D
:101D9000E695E695E025F0E03196E1FB882780F9AD
:101DA000AE01435F5F4FBE016F5F7F4FC3DE282FE1
:101DB0008C2D8519811708F4C9CF222311F02150E9
:101DC00004C08D858F5F8D8727E089E18093F120A6
:101DD0008093F22085E28093F3208093F4203AE010
:101DE000E32E4D856CE0CE010196EBDE2D96EFE003
:101DF0000C94CB3CADE0B0E0E0E0FFE00C94BE3CE6
:101E0000162F242F4BE0BE016F5F7F4F01962D8769
:101E10008ADC2D85412F682FCE0101967BDF2D9620
:101E2000E3E00C94D73C43E066E0E4CFEF920F93FD
:101E3000CF93DF93CDB7DEB76097CDBFDEBF40E174
:101E4000BE016F5F7F4F01966EDC69814A810B8115
:101E50008C818093F2208D818093F1208E818093FC
:101E6000F4208F818093F320E02EE2947FE0E7223C
:101E70000F70242F2F7042954F70CE010896A1DE6F
:101E80006096CDBFDEBFDF91CF910F91EF900895A7
:101E9000A9E1B0E0EEE4FFE00C94B73C4BE0BE01FA
:101EA0006F5F7F4F01963FDC182F893009F05BC0D0
:101EB00099E19093F1209093F2209093F42082E3A3
:101EC0008093F32069E0CE0101967FD2E1E0F0E05B
:101ED000EC0FFD1FE10FF11D8083198E1D868E0111
:101EE0000F5F1F4F6E018BE0C80ED11C27E0AA24A4
:101EF000A394B12C25C0E12CF12CF5010E2C01C0CE
:101F0000EE0F0A94EAF7D8018C91AE01475E5F4F5D
:101F1000BE01635F7F4F8E230DDE282FBFEFEB1ACC
:101F2000FB0A88E0E816F10441F7AE01475E5F4F17
:101F3000BE01635F7F4F81E0FDDD282F0F5F1F4FE4
:101F40000C151D05C1F6222311F0215004C0898D06
:101F50008F5F898F27E0EAE0EE2E03E0498D6CE089
:101F6000CE010D962EDE6996EAE00C94D03CA9E1F4
:101F7000B0E0EDEBFFE00C94B23C4BE08E010F5F64
:101F80001F4FB8010196CFDBF82E582E85E38093C2
:101F9000F22096E19093F1209093F4208093F32027
:101FA0006F2DC8011ED2F801EF0DF11D80835394EF
:101FB000198E1D86780127E0AA24A394B12C48012C
:101FC0004DC0C12CD12C3401680E711CF5010C2CB4
:101FD00001C0EE0F0A94EAF7D3018C91AE01475E7F
:101FE0005F4FBE01635F7F4F8E23A4DD282FBFEFBD
:101FF000CB1ADB0A84E0C816D10441F7AE01475E74
:102000005F4FBE01635F7F4F81E094DD282FB4E016
:10201000CB2ED12CF5010C2C01C0EE0F0A94EAF75F
:10202000D7018C91AE01475E5F4FBE01635F7F4F6A
:102030008E2380DD282FBFEFCB1ADB0A88E0C8167D
:10204000D10441F7AE01475E5F4FBE01635F7F4F32
:1020500081E070DD282FAFEFEA1AFA0A8E2D801B7F
:10206000851508F4AECFAAE0EA2E03E0498D6AE0B8
:10207000CE010D96A6DD6996EFE00C94CB3CEF9275
:102080000F93CF93DF9300D01F92CDB7DEB743E01D
:10209000BE016F5F7F4F019646DB8AE68093F22098
:1020A00094E29093F12091E29093F4208093F320B6
:1020B00080E88C839FE0E92E03E026E043E060E0C7
:1020C000CE0101967EDD2496CDBFDEBFDF91CF919C
:1020D0000F91EF9008956F927F928F929F92BF928F
:1020E000CF92DF92FF920F931F93CF93DF93A62F90
:1020F0001092652110926621FC016181660F660FC6
:10210000660F2381621B695F10926721F12C70E0DA
:1021100047E0F7E0DF2EC12C20E007E010E0C1E04F
:10212000D0E07DC0FC01EC0DF11D248130E00D2CD0
:1021300002C0359527950A94E2F721703327522F74
:10214000DD2011F0DA9403C0C394E7E0DE2EAB3457
:1021500091F4433009F081C0F11007C051115CC007
:10216000109265217093662176C0F12C79C0AB3452
:1021700009F050C03CC04F3F41F5A634B9F4E72FF9
:10218000F0E0E959FE4D4081042E42954025042E91
:1021900046954695402550E04F5F5F4F41FB8824B0
:1021A00080F8912C8216930641F004C0A53429F4DE
:1021B000511103C0F0926521D5CF7F5FE72FF0E08A
:1021C000E959FE4D108247E029C0552319F1A63484
:1021D00059F4E72FF0E0E959FE4D9E01042E01C0AD
:1021E000220F0A94EAF713C0A53409F0C0CFE72FF5
:1021F000F0E0E959FE4D9801241B310947FD339564
:102200003E0102C0660C771C2A95E2F793013081EB
:10221000322B3083415002C0FF24F3942B2DB22E79
:10222000B394261708F47ECFF0926521709366214F
:102230006B1588F4A53419F44F3F09F404C080915C
:102240006521882319F07F5F7093662181E090916A
:102250006621911108C080E006C04F3F09F4A8CF65
:102260005111C5CFD7CFDF91CF911F910F91FF9023
:10227000DF90CF90BF909F908F907F906F90089548
:10228000E0E4F9E01682E09198218CE1E89FF0010A
:102290001124EB50FF4D10820895FC01218124315F
:1022A00008F0EECF662389F0DC01A20FB11D81E0BA
:1022B00090E0038002C0880F991F0A94E2F71496F9
:1022C0009C911497982B14969C938381882319F0E2
:1022D00081508383089587E083832F5F2183E20FFA
:1022E000F11D14820895DC0111962C91119730E0B4
:1022F00050E0F901E41BF50B8C91EC30F105DCF4B6
:10230000E53FFF4FC4F090E070E0FC01E61BF70BE7
:10231000EC30F10584F4E53FFF4F6CF0280F391FD6
:10232000640F751F261B370B2C30310524F481E018
:10233000253F3F4F0CF480E00895E0E8F6E081E0AF
:102340008183868382E08283118A81858C60818784
:1023500082EC91E080932424909325241092112103
:1023600010922D211092492110921E2408958091DF
:10237000182481110AC080912724882321F00E940B
:1023800013090C941F080C940A090895FC0121817B
:1023900021110BC080912724C2D940E265E08091D1
:1023A0002424909125244BD946C941E067E274E288
:1023B0000196B9D9DCCF06C04150FB01E40FF11DF5
:1023C0009081890F4111F8CF089520E006C0615037
:1023D000FC01E60FF11D308123276111F8CF822F18
:1023E0000895A091652140E035E020E012C06150E1
:1023F000FC01E60FF11D5081752F72957F70272724
:10240000370FAA2311F0442319F05F702527350FE9
:102410004F5F6111ECCF320F40E1349FC0011124B6
:10242000822B0895FC0132812381A081B181A30F09
:10243000B11D8C9190E0022E02C0959587950A946B
:10244000E2F78170922F91509383211104C03F5F76
:10245000328397E0938308958F929F92BF92CF9299
:10246000DF92EF92FF920F931F93CF93DF931F9210
:102470001F92CDB7DEB76C01812C912CB12CEE24CC
:10248000E394F12C062F10E0015011091DC0C60184
:102490004A836983C7DF4A816981882391F0442395
:1024A00049F09801281939098E2D01C0880F2A9505
:1024B000EAF706C08E2D082C01C0880F0A94EAF7AF
:1024C000B82A8FEF881A980A861608F38B2D0F907A
:1024D0000F90DF91CF911F910F91FF90EF90DF90C0
:1024E000CF90BF909F908F900895A4E0B0E0EBE76D
:1024F000F2E10C94B63C1B8227E02C839C012C5FFC
:102500003F4F29833A8310926621FC012181338158
:1025100087E090E0831B9109F8E02F9F800D911DCB
:102520001124853491057CF554C00A2D10E040E05B
:1025300068E0CE01019690DF09591E4DF8018083B5
:10254000982E092C92949024092C96949694902479
:10255000CE01019667DF292D30E02F5F3F4F21FB31
:10256000CC24C0F8D12C90E0C816D90691F5CE0144
:10257000019658DF81112DC0F8018081B826A394FF
:10258000A092662101C0B12CA0906621F5E0FA1559
:1025900060F640E068E0CE0101965EDF082F182F5C
:1025A000012E12951025012E169516951025CE0197
:1025B000019638DF212F30E02F5F3F4F21FBEE24C3
:1025C000E0F8F12C282F30E0E216F30611F481E058
:1025D000B01280E02496EBE00C94CF3CA5E0B0E094
:1025E000E4EFF2E10C94BC3CFC011B8287E08C839D
:1025F000CF01049689839A838081853009F050C089
:102600002181338187E090E0831B910938E0239F8B
:10261000800D911D11248039910509F041C010925F
:1026200066210FE010EF29E812C0CE0101962D833C
:1026300013DF080F111DEF2DF0E0E959FE4D2D813C
:1026400028272083282F2C5DF394F0926621F090A8
:1026500066218EE041E068E08F1538F7CE010196E3
:10266000FBDE080F111DEF2DF0E0E959FE4D8095BE
:102670008083F394F092662141E068E0CE010196F8
:10268000EBDE382F20E0021B130B41E068E0CE01A7
:102690000196E2DE282F30E081E00217130709F0EF
:1026A00080E02596E5E00C94D53CA4E0B0E0EBE5B5
:1026B000F3E10C94BE3C1B8227E02C839C012C5F31
:1026C0003F4F29833A83FC012181243099F583818E
:1026D000813081F51092662114C0111106C067E0A7
:1026E000CE010196B9DE806804C068E0CE01019693
:1026F000B3DEE12FF0E0E959FE4D80831F5F1093B8
:1027000066211091662141E0143038F367E0CE0174
:102710000196A2DEE12FF0E0E959FE4D880F80839B
:102720001F5F109366219091672192959F7081E0C1
:102730009A3009F080E02496E3E00C94D73C809135
:10274000262480FD03C08460809326240895A1E0A0
:10275000B0E0EDEAF3E10C94BB3C198280917B215F
:102760008823B9F18091272487FF17C084E30E9452
:10277000E4078058803458F0803C58F490E080554D
:102780009109B3E095958795BA95E1F703C080E08C
:1027900001C08FE08F590E94D00A8091272483FFC7
:1027A00016C082E70E94D00A8091272484FF04C0CB
:1027B00080917C210E94D00A86E60E94D00A8091F6
:1027C000272484FF04C080917B210E94D00A1092AC
:1027D0007B2180917D21882309F44EC284E080937F
:1027E000650600917E212CE1029F800111240B508F
:1027F0001F4D8981811106C0C801F0DE882311F0C8
:1028000083E58983898181113DC066E4C80163DC69
:102810008823C1F1F0906621FA94F09266214F2D41
:1028200067E671E286E0C7DD6F2D70E0FB01E959D4
:10283000FE4DE0808E1105C093E09F1510F486E4F4
:102840001EC0282F30E02F5F3F4FEE2DF0E02E17F7
:102850003F0751F4E3E0EF1538F496E49983FB0168
:10286000E959FE4D80830EC04F2D67E671E28CE082
:10287000A2DD8E1106C0F3E0FF1518F484E589830C
:1028800001C019828981811116C065E4C80123DC69
:10289000882389F080916621815080936621893058
:1028A00051F469E087E691E290DD909170218913FF
:1028B00002C085E489838981811106C0C80115DEC3
:1028C000882311F088E489838981811106C0C801B9
:1028D000ECDE882311F084E789838981811133C07C
:1028E000F801438D60917C21C8014A96FCDC682F79
:1028F000C801D3DC6BE4C801EEDB8823B1F0F090B3
:102900006621FA94F09266216F2D87E691E269DDE7
:10291000EF2DF0E090916521E91BF109E959FE4D99
:102920009081891302C08BE48983898181110BC056
:10293000F8018381982F9F5F9383873021F413825E
:10294000818181508183898181112AC0F80181812F
:10295000843031F58381843019F54EE16CE3C80190
:102960004896C1DC8823E1F04EE160917C21C801EA
:102970004A96B9DC682FC80190DC20E0822F90E0F5
:10298000FC01E959FE4DD801A80FB91F14968C918E
:1029900080832F5F253090F32093662182E5898321
:1029A0003981332309F4DAC02091272420FFD6C0CF
:1029B000809126248E7F8B7F8093262421FD64C006
:1029C00050917F21F09066215F113DC040E017C01B
:1029D000842F90E0642F6F5FFC01E058FE4DDC0116
:1029E000A959BE4D70818C91781741F040937F2199
:1029F000809126248D7F8093262405C0462F45177D
:102A000038F340937F2145131EC0409120245091FC
:102A1000212460912224709123248091942190910B
:102A20009521A0919621B0919721481B590B6A0BD3
:102A30007B0B463251056105710528F480912624EF
:102A400081608093262440E00BC0842F90E0FC013D
:102A5000E058FE4DDC01A959BE4D8C9180834F5F3B
:102A60004F1598F340937F21809120249091212449
:102A7000A0912224B09123248093942190939521B6
:102A8000A0939621B09397213435F1F426FD1CC014
:102A9000809166218530C0F0809169218B3479F076
:102AA000893669F0833559F0843549F08D3739F02E
:102AB0008E3729F080916A218077803729F48091C0
:102AC0002624816080932624B801CE01019637DE4A
:102AD0008981843569F49091BE24992349F09091BD
:102AE000C524911105C0909126249B7F90932624A4
:102AF0009091262492FF32C00E94D00A80916521D5
:102B0000882329F080916621815080936621F12CE1
:102B100008C0EF2DF0E0E959FE4D80810E948F0B37
:102B2000F394E0916621FE16A0F38091652188233D
:102B300051F0F0E0E959FE4D808140E361E08F7093
:102B400090E00E94550B8091272485FF05C084E307
:102B50000E94E4070E948F0B0E941B0B8091272488
:102B600082FF6FC080E70E94D00A40E262E0F80175
:102B7000808190E00E941F0BF801808D40E265E0AB
:102B8000F0E18F9FC00111240E941F0BF801818D7D
:102B900040E265E0F0E18F9FC00111240E941F0B0D
:102BA000F801828D40E265E0F0E18F9FC0011124C1
:102BB0000E941F0BF801838D40E265E0F0E18F9FDA
:102BC000C00111240E941F0B40E263E0F8018281E2
:102BD00090E00E941F0B40E263E0F801818190E0E9
:102BE0000E941F0BF801238140E262E087E090E041
:102BF000821B91090E941F0B80E20E94D00A8091E3
:102C0000272485FF08C084E30E94E4070E948F0BFD
:102C100080E20E94D00AF8018381873019F0818117
:102C20008F5F8183F12C07C0F801EF0DF11D8481C6
:102C30000E948F0BF394F8018181F816A8F30E948B
:102C40001B0BF801108280917D21815080937D21A2
:102C500080917E218F5F843019F080937E2102C0A5
:102C600010927E2184E0809366068981843521F468
:102C700087E691E20E940D262196E6E00C94D43C72
:102C80001F920F920FB60F92112408B60F9218BE22
:102C900009B60F9219BE0BB60F921BBE2F933F932E
:102CA0004F935F936F937F938F939F93AF93BF9354
:102CB000EF93FF93109246098091272483FF03C06E
:102CC0008EE20E94D00A809198219CE1899FF001B8
:102CD0001124EB50FF4D9081933018F09181923088
:102CE00010F4CEDA18C090917D21933049F4809190
:102CF000272482FFF6CF87E493E00E940E0BF1CFEA
:102D00009F5F90937D218F5F843019F0809398218D
:102D100002C010929821FF91EF91BF91AF919F91C6
:102D20008F917F916F915F914F913F912F910F9074
:102D30000BBE0F9009BE0F9008BE0F900FBE0F90F4
:102D40001F901895982F9552973160F46A3050F083
:102D5000673240F421E030E0681710F020E030E006
:102D6000C901089580E090E008951F920F920FB678
:102D70000F92112408B60F9218BE09B60F9219BE11
:102D80000AB60F921ABE0BB60F921BBEFF920F939C
:102D90001F932F933F934F935F936F937F938F93E3
:102DA0009F93AF93BF93CF93DF93EF93FF93809164
:102DB0000525882321F082E08093052527C1809195
:102DC000B424823021F483E08093B4241FC1809125
:102DD000600990916109E4E096958795EA95E1F79D
:102DE000182FC09198218CE1C89FE0011124CB508D
:102DF000DF4D8881843031F41E3208F407C11F345E
:102E000048F0A5C0853031F4173108F4FFC01832FE
:102E100008F09DC00E94430581110EC08881845036
:102E2000823038F461E0CE0138DA109260091092F5
:102E3000610910937C21EAC000917C21101B109342
:102E40007B21109260091092610988818450823040
:102E500020F460E0CE0121DAD9C080914C09816074
:102E600080934C09F880F1100DC0053608F0CEC0F3
:102E7000153608F0CBC0088F198F81E08A8382E075
:102E80008883C4C082E0412F602FF81270C0CE0149
:102E9000489629DA882301F1888D90E09C01220F61
:102EA000331F280F391F200F311D35952795359574
:102EB0002795288F298D30E0C901880F991F820F2F
:102EC000931F810F911D9595879595958795898F6E
:102ED0008A818F5F8A839AC08A81843008F445C0D2
:102EE00080EA9FE080936609909367098A818C301D
:102EF00050F0888D298D30E0280F311D25363105A1
:102F000024F084E027C08A3088F0888D298D30E055
:102F1000280F311D253231054CF485E0888388EE79
:102F200093E0809366099093670915C080912D24E2
:102F3000882379F0612F802F05DF882351F0688D79
:102F4000898D00DF882329F081E08093B42498D90B
:102F50005DC083E088830A8F1B8F198287E08B8393
:102F60001C8281E08093460951C018827ECFCE0139
:102F70004A96B9D9882301F161E0CE018ED94A8DF4
:102F800050E09A01220F331F240F351F200F311DEF
:102F900035952795359527952A8F2B8D30E0C901DA
:102FA000880F991F820F931F810F911D959587950B
:102FB000959587958B8F2AC0412F602FCE0148961B
:102FC00092D9882301F160E0CE0167D9488D50E0A5
:102FD0009A01220F331F240F351F200F311D359505
:102FE000279535952795288F298D30E0C901880FC1
:102FF000991F820F931F810F911D95958795959528
:103000008795898F03C087E0F812A1CFFF91EF91D8
:10301000DF91CF91BF91AF919F918F917F916F91F0
:103020005F914F913F912F911F910F91FF900F90C2
:103030000BBE0F900ABE0F9009BE0F9008BE0F90F6
:103040000FBE0F901F901895E09198218CE1E89F9A
:10305000F0011124EB50FF4D8081811109C081E006
:1030600090E02091F4242F3F29F480E090E008952F
:1030700081E090E0089580E690E00E94F60B809356
:103080002D2481E690E00E94F60B8093BE248823D5
:1030900021F081E2809327246AC9089521E0E0E8C5
:1030A000F6E025830C94490521E0E0E8F6E026836C
:1030B0000C944905A7E0B0E0E0E6F8E10C94BA3CD6
:1030C00090913124943559F42091B7243091B8244B
:1030D0002F5F3F4F2093B7243093B8243EC09634DF
:1030E00059F42091B5243091B6242F5F3F4F20939F
:1030F000B5243093B62431C0953459F420912A2454
:1031000030912B242F5F3F4F20932A2430932B2480
:1031100024C09B3459F42091BA243091BB242F5FF2
:103120003F4F2093BA243093BB2417C0983459F4EE
:103130002091BC243091BD242F5F3F4F2093BC24AD
:103140003093BD240AC020912824309129242F5F78
:103150003F4F209328243093292495E7998388238F
:1031600099F0BE016E5F7F4F8091BE240E94DC0B00
:10317000BE016C5F7F4F80912D240E94DC0B85E5A2
:103180008E8396E0D92E02C0DD24D3940E941309C9
:103190000E948D0816E080E891E080DF80E093E0F7
:1031A00083DF1150C1F780E093E078DF80E891E0A1
:1031B0007BDF80E891E072DF81E08093860687E321
:1031C00090E00E94A10883E090E00E94660580E103
:1031D000809366068FE70E943505809130248D0D1F
:1031E0000E943505EE24E394F12CEC0EFD1E8701C0
:1031F000F80181918F010E943505802F8E198D1560
:10320000B8F306C08EE294E20E94830D0E94350559
:10321000809130248111F6CF80E1809365060E9471
:103220008D088EE294E20E94680D15E104C081E0F1
:1032300090E00E9466058AE30E94E4078F7711F010
:103240001150A9F794D82796E7E00C94D33CCF937C
:10325000DF93EC018981811107C080912D240E94A8
:103260008F0B8091BE2413C08436A1F4809120245A
:1032700090912124A0912224B091232440E364E082
:103280000E94550B8EE20E94D00A8091B3240E94C6
:103290008F0B4DC0833709F04DC040E361E0809152
:1032A000B7249091B8240E94550B8EE20E94D00A58
:1032B00040E361E08091B5249091B6240E94550BC3
:1032C0008EE20E94D00A40E361E080912A2490912E
:1032D0002B240E94550B8EE20E94D00A40E361E04D
:1032E0008091BA249091BB240E94550B8EE20E94DB
:1032F000D00A40E361E08091BC249091BD240E94FB
:10330000550B8EE20E94D00A40E361E080912824B0
:10331000909129240E94550B8EE20E94D00A40E32E
:1033200061E08091B1249091B2240E94550B0E94DB
:103330001B0B2CC08936D9F441E06DE274E2CE015A
:1033400002960E94930B60912D2480E690E00E94EB
:10335000EF0B41E06EEB74E2CE0104960E94930BFA
:103360006091BE2481E690E00E94EF0B0FC08EE2D8
:1033700094E20E94680D219604C08EE294E20E94BD
:103380006D0D69916111F9CF80E094DEDF91CF91ED
:103390000895A1E0B0E0EFECF9E10C94B93C809124
:1033A000B424882309F48AC0C0902024D09021241A
:1033B000E0902224F0902324833009F065C08FE34D
:1033C0000E94E407182F8630E8F08CE396E20E9412
:1033D000680D80E1809366068FEF0E94350580E0DE
:1033E0000E943505082F08C080E00E943505682F2F
:1033F0008CE396E20E946D0D1150B1F780E180934D
:10340000650601C000E00E94B7111092B424053790
:1034100009F054C041E0BE016F5F7F4F8FE396E239
:103420000E94930B019759F5998180912D2498134F
:1034300026C080914326853571F406C08CE396E260
:103440000E94830D0E94D00A80913E268111F6CF02
:103450000E941B0B33C080913E26845080933E26F1
:1034600084E080933D266AE08CE396E20E946D0D35
:10347000E0911C24F0911D2488E019951FC08CE375
:1034800096E20E94680D1AC0823059F490912C2463
:103490008C2D891B883090F00E94B7111092B424B3
:1034A0000DC0813059F487E390E00E94A1080E948A
:1034B0001F0882E08093B424C0922C242196E8E077
:1034C0000C94D23CC1DD882361F083E08093B92461
:1034D0008091B1249091B22401968093B12490936D
:1034E000B2248091B92481508093B924882321F09B
:1034F00083E08093B324089581E0DCCDCF93C82F7F
:103500008091082090910920C130E9F4C09385068C
:103510009C01220F331F820F931F0E944905C09305
:10352000860680910820909109200E944905C09349
:1035300085068091082090910920AC01440F551F09
:10354000840F951F45C0C11126C0C1E0C0938506F8
:103550000E944905C0938606809108209091092019
:103560009C01220F331F820F931F0E944905C093B5
:10357000850680910820909109200E944905C093FA
:10358000860680910820909109209C01220F331F0C
:10359000820F931F25C0C1E0C09385060E94490594
:1035A000C093860680910820909109209C01220FEB
:1035B000331F820F931F0E944905C0938506809197
:1035C0000820909109209C01220F331F820F931F26
:1035D0000E944905C0938606809108209091092099
:1035E0000E944905CF910895CF93DF93C0E1C09326
:1035F000610682E080938206C09365068EE190E0CA
:103600000E944905C09366068EE190E00E9449053C
:10361000C09365068DE290E00E94490580E30E9418
:10362000120884E690E00E944905C093660680E493
:103630000E943505CEE4D3E0FE0184910E94350559
:103640002196F3E0CB35DF07B9F7809103200E9484
:103650003505809104200E943505809105200E9447
:103660003505C0E0D0E0FE01E25AFC4F84910E9493
:1036700035052196C931D105B1F780E18093650602
:10368000809366068EE70E9435058BE290E0EC01A0
:1036900021960E94F60B0E943505CE01C333D10559
:1036A000B1F780E18093650683E30E94120881E010
:1036B00090E00E94660581E080931E24DF91CF9107
:1036C0000895A0E0B0E0E7E6FBE10C94B83CEC0123
:1036D0008981843769F468E070E2CE0102960E9425
:1036E000C10B40E260E0809108209091092012C057
:1036F000833709F0B4C08A81823789F466E070E2CA
:10370000CE0103960E94C10B40E260E0809106204A
:10371000909107200E941F0B0E941B0B15C184E093
:103720008093650680919B21811117C08091702242
:10373000882329F081E080939A2110927022809151
:103740007222882329F081E08093992110927222BD
:103750004BDF83E090E00E94660586E30E9412083A
:103760008AE30E9412088BE30E9412080E948D08CF
:1037700000E010E06E0182E0C80ED11C27C0F70106
:1037800081917F01803311F480E005C0813311F411
:1037900081E001C082E0B2DEBA9489F7FF24F3949D
:1037A000F092850680910820909109200E94490599
:1037B000F0928606BFE1FB2E8091082090910920AF
:1037C0000E944905FA94C1F70F5F1F4F80910620B0
:1037D000909107200817190720F47601ACE0BA2E63
:1037E000CECF80919B21882341F0809127248111A5
:1037F0000FC086E30E94120819C080919A21882385
:1038000051F010929A210E94882781E080937022C3
:103810000E941F080BC080919921882329F01092E3
:1038200099210E94902902C00E94B71184E08093E0
:10383000660689E60E94D00A83E70E94D00A229693
:1038400011E08991803309F404C0813309F401C087
:1038500086E40E94D00A1F5F1D3099F75DCF823742
:10386000B9F480917022882329F081E080939A2115
:103870001092702280917222882329F081E0809337
:10388000992110927222B0DE81E080939B215CC06E
:10389000863651F58A81803351F480E1809303208C
:1038A00080EB8093042081E78093052007C043E0EC
:1038B00063E070E2CE0102960E94930B89E60E94BB
:1038C000D00A86E60E94D00A8AE30E94D00A80913C
:1038D00003200E948F0B809104200E948F0B809107
:1038E00005200E948F0B18CF883731F580919A21DF
:1038F000882341F010929A210E94882781E08093CA
:10390000702211C080919921882329F01092992169
:103910000E9490290EC082E090E00E94A108809150
:103920002724882319F00E941F0803C086E30E9401
:10393000120810929B2108C0833631F468E070E2CF
:10394000CE0101960E94C10BCDB7DEB7E9E00C9421
:10395000D13CA2E0B0E0EFEAFCE10C94AF3C7C018A
:10396000FC018181833709F0BBC1198287E090E0B7
:103970000E94E03C8C0141E0BE016F5F7F4FC701B8
:1039800002960E94930B8981F801808341E0BE0179
:103990006F5F7F4FC70104960E94930B2981207FA0
:1039A000F801218341E0BE016F5F7F4FC70106969A
:1039B0002A830E94930B8981F801828341E0BE0132
:1039C0006F5F7F4FC70108960E94930B8981F801B2
:1039D000838341E0BE016F5F7F4FC7010A960E945B
:1039E000930B8981F801868341E0BE016F5F7F4FB1
:1039F000C7010C960E94930B8981F801858341E0F1
:103A0000BE016F5F7F4FC7010E960E94930B8981A5
:103A1000F801848380E090E02A814191342F32952F
:103A20003F70342783279F5F9730B9F78F70822BC1
:103A3000F801818387E090E00E94E03C5C0187E030
:103A4000F801D50101900D928A95E1F7D801119600
:103A5000C8010696F8013D91219123272083E8179C
:103A6000F907C9F784E08093650680919E21811152
:103A70006EC080917022882329F081E080939D217F
:103A80001092702280917222882329F081E0809325
:103A90009C211092722270E1F72EF092610682E072
:103AA00080938206F09265068EE190E00E944905BF
:103AB000F09266068EE190E00E944905F09265065C
:103AC0008DE290E00E94490580E30E94120884E69E
:103AD00090E00E944905F092660680E40E94350558
:103AE000E7E7EE2EE3E0FE2EF70184910E94350514
:103AF000FFEFEF1AFF0A20EAE21623E0F206A1F731
:103B000080E180936506809366068EE70E94350506
:103B10008BE290E07C01EFEFEE1AFE0A0E94F60BBA
:103B20000E943505C70183339105A1F780E1809399
:103B3000650683E30E94120881E090E00E9466051A
:103B400081E080931E2483E090E00E94660586E376
:103B50000E9412088AE30E9412088BE30E94120856
:103B60000E948D08FF24F394F092850687EC94E27E
:103B70000E944905F092860689E590E00E9466055C
:103B800085E392E00E944905E12CF12C55245394E1
:103B9000442443945DC0EE2011F027E001C022E0F0
:103BA000D12C5092850686EF99E02A830E94490520
:103BB0005092860686EF99E00E944905D3942A81A7
:103BC000D2167CF3409285068CEF92E10E94490563
:103BD0004092860680910A2090910B200E94490510
:103BE0006801312CF60181906F0158E0252E60E8C4
:103BF000662E712C912C93012821392180910A2065
:103C000090910B20232B39F4509285060E94490590
:103C10005092860606C0509286060E944905509230
:103C2000850680910A2090910B200E944905769488
:103C300067942A9401F73394F7E03F12D3CF509260
:103C4000860680E090E00E9449052FEFE21AF20A12
:103C500080910E2090E0E816F9060CF49CCF80913C
:103C60009E21882341F08091272481110FC086E393
:103C70000E94120819C080919D21882351F0109252
:103C80009D210E94882781E0809370220E941F0856
:103C90000BC080919C21882329F010929C210E94C6
:103CA000902902C00E94B71184E08093660689E5DE
:103CB0000E94D00A83E70E94D00A750137E0D32E14
:103CC000F70181917F010E948F0BDA94C9F70E945E
:103CD0001B0BC5010E947B3DC8010E947B3D6FC04C
:103CE0008237A9F46EE070E2C70102960E94C10B10
:103CF00089E50E94D00A82E70E94D00A8AE30E94E6
:103D0000D00A40E260E080910E2090E02CC0843721
:103D100079F5F7018281803339F488ED94E080935E
:103D20000C2090930D2006C06CE070E2C701029653
:103D30000E94C10B80910C2090910D209695879543
:103D400080930A2090930B2089E50E94D00A84E793
:103D50000E94D00A8AE30E94D00A40E266E0809185
:103D60000C2090910D200E941F0B0E941B0B27C05E
:103D7000883729F580919D21882341F010929D215B
:103D80000E94882781E08093702211C080919C213D
:103D9000882329F010929C210E9490290EC082E075
:103DA00090E00E94A10880912724882319F00E94A6
:103DB0001F0803C086E30E94120810929E212296DB
:103DC000E2E10C94C83CCF93DF93C0E1C09361065D
:103DD00082E080938206C09365068EE190E00E94A7
:103DE0004905C09366068EE190E00E944905C093A4
:103DF00065068DE290E00E94490580E30E9412086A
:103E000084E690E00E944905C093660680E40E9423
:103E10003505C0EAD3E0FE0184910E943505219664
:103E2000F3E0C93CDF07B9F780E180936506809332
:103E300066068EE70E9435058BE290E0EC01219644
:103E40000E94F60B0E943505CE01C333D105B1F7B0
:103E500080E18093650683E30E94120881E090E090
:103E60000E94660581E080931E248093B221DF9139
:103E7000CF910895A0E0B0E0E0E4FFE10C94B73CFE
:103E80008C018091BF24F801838364839DE0E92E37
:103E9000F12C20E1A22E0E948D0885E30E94E40708
:103EA000833169F089EC93E00E940E0B85E30E9458
:103EB000E4070E948F0B0E941B0B85DF4AC04091D4
:103EC0002024509121246091222470912324409336
:103ED000C0245093C1246093C2247093C324A09241
:103EE00066068FE70E9435056801C0E0D0E08AEAE7
:103EF000B82EF60180810E943505C930D10544F401
:103F0000F6018081B826C730D10511F4F801B086DA
:103F10002196FFEFCF1ADF0ACF30D10551F7A092DB
:103F20006506C8EC85E30E94E407833131F081E047
:103F3000E81AF10809F0AFCF07C081E090E00E94D5
:103F40006605C15079F7F3CF8091BF248F5F8093CE
:103F5000BF24CDB7DEB7EAE00C94D03CABE3B0E0D1
:103F6000E4EBFFE10C94B53C7C01DC010D900020FA
:103F7000E9F7AD0141505109481B590B6C01B2E002
:103F8000CB0ED11CBE01625D7F4FC6010E94930B18
:103F9000082F68EE70E280E190E20E945B3FF7013B
:103FA0001181812F8357823008F0DCC181E080933A
:103FB000B02187858A3411F489E501C08EE48093AD
:103FC0000F20A8958090202490902124A090222456
:103FD000B0902324409120245091212460912224E8
:103FE000709123244093C0245093C1246093C22431
:103FF0007093C32480910F20893509F054C086ED59
:1040000093E00E940E0B82EE93E00E940E0BC7011C
:104010000E94030B89EF93E00E940E0BD7010D90D5
:104020000020E9F7CD01019740E260E08E199F0979
:104030000E941F0B8EE094E00E940E0BF70101908E
:104040000020E9F73197EE19FF09EE0DFF1D40E260
:1040500060E0808190E00E941F0B86E594E00E9462
:104060000E0B40E260E0802F90E00E941F0B8EE973
:1040700094E00E940E0B81EA94E00E940E0B40E354
:1040800064E08091C2249091C3240E94550B40E3C8
:1040900064E08091C0249091C1240E94550B88EB6C
:1040A00094E00E940E0BD7010D900020E9F7519784
:1040B000AE15BF0509F03DC142E0BE01625D7F4F14
:1040C000C6010E94930B029709F033C17CDE0EA556
:1040D000B701665F7F4F45E050E0CE0101960E9438
:1040E000703F1E824AE050E060E070E0CE01019631
:1040F0000E941A3E6B017C0133E0F694E794D7945A
:10410000C7943A95D1F780910F208935F1F48BEB64
:1041100094E00E940E0BCE0101960E94030B82EDEB
:1041200094E00E940E0B89ED94E00E940E0B40E398
:1041300064E0C7010E94550B40E364E0C6010E94A1
:10414000550B80EF94E00E940E0B8FE0E6E6F0E264
:10415000DE015F9601900D928A95E1F78FA588A305
:1041600088A989A389A98EA3602FCE014F9682DEEC
:10417000133709F4EEC007FFECC04091C024509102
:10418000C1246091C2247091C32480912024909115
:104190002124A0912224B091232488199909AA09E5
:1041A000BB098E379105A105B10548F48090202404
:1041B00090902124A0902224B0902324A89580914F
:1041C000202490912124A0912224B0912324841BA7
:1041D000950BA60BB70BC816D906EA06FB06A8F680
:1041E0008090202490902124A0902224B090232419
:1041F00080910F20893509F073C088EF94E00E9408
:104200000E0B40E364E0C5010E94550B40E364E0FF
:10421000C4010E94550B8FE095E00E940E0B87E1D0
:1042200095E00E940E0B40E364E08091C2249091DF
:10423000C3240E94550B40E364E08091C024909118
:10424000C1240E94550B8EE295E00E940E0B86E37E
:1042500095E00E940E0B40E364E0C7010E94550BFD
:1042600040E364E0C6010E94550B8DE495E00E9496
:104270000E0B85E595E00E940E0B80912024909115
:104280002124A0912224B09123244091C024509154
:10429000C1246091C2247091C324841B950BA60B8A
:1042A000B70B40E364E0CD010E94550B80912024C0
:1042B00090912124A0912224B09123242091C02404
:1042C0003091C124821B930B40E364E00E94550BA4
:1042D0008CE695E00E940E0B84E795E00E940E0BA1
:1042E00067EFCE014F96C6DD4091C0245091C124A6
:1042F0006091C2247091C324809120249091212444
:10430000A0912224B0912324841B950BA60BB70BFC
:104310004597A105B10580F380910F20893521F4DF
:104320008DE795E00E940E0B67EFCE014F96A2DD60
:1043300010C086E895E00E940E0B40E260E08EE03F
:1043400090E00E941F0B8BEA95E00E940E0B1092EA
:10435000B2218091B121813011F40E941F08109286
:10436000B02149C0123709F040C0F701828185347D
:1043700051F41092B12186E30E9412081092AF21ED
:104380008FEC95E02FC0833559F58381813311F48B
:1043900081E003C0823321F482E08093AF2102C028
:1043A0001092AF2181E08093B1210DDD80EE95E088
:1043B0000E940E0B0E941F0885E30E94E4078D30C7
:1043C000D1F083EF95E00E940E0B85E30E94E40795
:1043D0000E948F0B0E941B0BF6DC1092B1210BC0C8
:1043E0008CE096E00E940E0B06C08EE296E00E94E2
:1043F0000E0B1092B221EB96ECE00C94CE3C109296
:10440000DF241092612283E0809362228FEF8093F9
:10441000F4240895E3EBF1E20EC0009751F04181DE
:10442000DC013C91431305C0428111963C91431736
:10443000B1F0E20FF11D2081211105C0892B41F05F
:10444000E0E0F0E00CC0B2E2E136FB0730F3F6CF7B
:1044500032E2E136F30719F010F0E1E6F2E2CF01C3
:10446000089594E0899FF0011124EB50FB4D808169
:104470008F3F91F0809363228181809364228281B7
:104480008093652283818093662221E04CE064E082
:1044900083E692E20C948A0E089589E692E2BADFEE
:1044A000009799F020916222FC013081231768F473
:1044B000E20FF11D808180936B2289E780936C224B
:1044C000818180936D2281E0089580E00895EF92CC
:1044D000FF921F93CF93DF931F92CDB7DEB7182FB4
:1044E0008091272486FF18C084E599830E94D00A12
:1044F000E12E9981F92E15E0F70181917F010E944B
:104500008F0B1150C9F78091272485FF03C08AEFD4
:104510000E948F0B0E941B0B0F90DF91CF911F9178
:10452000FF90EF90089586E30E94120880916B221D
:10453000833519F48BE990E002C08BE490E00E948F
:10454000660521E04CE065E089E692E20E948A0E71
:104550000E941F0889E692E2BACFE5DF80916B22C4
:10456000893631F081E08093682289E28093F424D7
:104570000895CF9385E390E00E94F60B8093C524C5
:1045800086E390E00E94F60B8093F324CFEFC09374
:10459000E324C093E524C093E724C093E924C093A7
:1045A000EB24C093ED24C093EF24C093F12427DFC4
:1045B0001092B32181E08093C424C093F5248FEF3F
:1045C0009FEF8093C7249093C8241092C92410921F
:1045D000CA241092CB241092CC24C093F924809347
:1045E000CD249093CE241092CF241092D0241092F8
:1045F000D1241092D224C093FD248093D32490938D
:10460000D4241092D5241092D6241092D72410923C
:10461000D824C09301258093D9249093DA24109252
:10462000DB241092DC241092DD241092DE24CF9142
:104630000895ACE0B0E0EFE1F3E20C94B83C6C011B
:104640008C010F5F1F4F45E0BE016F5F7F4FC801B8
:104650000E94930B843008F0F4C099819130A9F442
:10466000833061F46A8185E390E00E94EF0B6B81F7
:1046700086E390E00E94EF0B7CDF09C28091C524A5
:104680000E948F0B8091F3249BC0923009F052C09E
:10469000813041F081E090E02A81213029F080E0F2
:1046A00090E002C081E090E0E82E8091B32181117A
:1046B00004C08EEA96E00E940E0B03EB11E230C0BC
:1046C00031E2033B130719F080E20E94D00AF8019F
:1046D00081810E948F0BF80182810E948F0BE11073
:1046E00005C0F8018081080F111D1AC08AE30E94DD
:1046F000D00A93E0F92E0FC0F3E0FF1528F4F0FE86
:1047000003C08CE20E94D00AF801EF0DF11DF39472
:1047100080810E948F0BF8018081F81668F3E1CF49
:10472000F8018081882309F489C0F2E201361F076D
:1047300038F284C0933049F480E090E06BDE835B14
:1047400091429EEA981B892F3BC0903171F503EE90
:1047500014E284EEE82E84E2F82EC12CD12CF8016C
:1047600080818F3FA1F0DD2019F080E20E94D00A05
:104770008C2D0E948F0B8AE30E94D00AF801808161
:104780000E948F0BF70180810E948F0BD3940E5FE4
:104790001F4FC394F2E0EF0EF11C38E0C312DFCFDD
:1047A000D1104CC080EA96E047C0913161F480910D
:1047B000E1249091E2246DE770E00E94663C862F30
:1047C0000E948F0B3BC09231C9F515EFE12E14E228
:1047D000F12E08EF14E2C12CD12CF70180818F3F1C
:1047E000F1F0DD2019F080E20E94D00A8C2D0E94A9
:1047F0008F0B8AE30E94D00AF70180810E948F0B01
:10480000F801329780810E948F0BF80131978081E7
:104810000E948F0BF80180810E948F0BD394F4E0EB
:10482000EF0EF11CC3940C5F1F4F34E0C312D5CFC1
:10483000D11004C084EA96E00E940E0B0E941B0B6C
:1048400026C144E0BE01695F7F4FC8010E94930BFF
:104850004F81493608F479C05A85688579855C307E
:1048600009F04DC020E030E080E090E0F901EB502D
:10487000FB4D508154131CC0A181A61319C0A28105
:10488000A71316C02CE023839C01220F331F280F8F
:10489000391FF901EE0FFF1FE953FB4D1082118202
:1048A000F901EE0FFF1FE753FB4D10821182D1C0BB
:1048B0005F3FE9F4408328852183298522832CE00A
:1048C00023839C01220F331F280F391FF901EE0F9C
:1048D000FF1FE953FB4D10821182F901EE0FFF1FFC
:1048E000E753FB4D108211821092C424B2C001968E
:1048F0002C5F3F4F2031310509F0B8CFC8C080E0B0
:1049000090E020E030E0FC01EB50FB4DA081A413CF
:1049100015C0A181A61312C0A281A7130FC0538393
:10492000F901EE0FFF1FE20FF31FEE0FFF1FE7531A
:10493000FB4D81E090E080839183A9C02F5F3F4FC2
:10494000049680319105F9F6A2C0E9818091C524D1
:10495000E817C8F190E0F0E09C01295F3F4F2E1767
:104960003F078CF13A812091F32432132CC02C8123
:104970002F3231F442E06CE0C6010E94FA0E87C08B
:104980002C32B9F42D812093E02481E090E08093D3
:10499000E1249093E2248091242490912524E4E062
:1049A0002E9F800D911D1124809324249093252403
:1049B0006EC0E81BF90BEE0FF0E0ED51FB4D2083CC
:1049C0008D81818364C080E090E024DD7C01F8016A
:1049D00001900020E9F73197E01BF10BF695E79580
:1049E000BE2EB394C7018B0D911D835B91428F3A0C
:1049F00091050CF048C0F701B1928F0121E01AC077
:104A000041E0B801F601E80FF11DCF012C870E94AB
:104A1000930B2C85233058F020FD09C0D801119745
:104A20008C91843621F4F80180818093C6242F5F15
:104A30000F5F1F4F822F880F81502B1508F3F1E66F
:104A4000EF16F2E2FF0618F5F701E20FF11D1082F2
:104A50001EC022E04CE064E0CE0107960E948A0E60
:104A60008FE08A8722E04CE064E0CE0107960E9446
:104A70008A0E82E08A8722E04CE064E0CE0107964D
:104A80000E948A0E04C088EA96E00E940E0B2C96C3
:104A9000E9E00C94D13C0F931F93CF93DF93909157
:104AA000C42491114BC093E0899F80011124F80127
:104AB000EE0FFF1FE953FB4D94E0899FD0011124B5
:104AC000AB50BB4D12969C91977046E0949F90011D
:104AD000391B112433583595279535952795208313
:104AE0003183E801CC0FDD1FC553DB4D28813981AF
:104AF0002F5F3F4F28833983000F111F07531B4D32
:104B0000F801408151814115510529F424303105C6
:104B1000A9F4A7DC11C04130510539F4A2DC82E0D0
:104B200090E0F8018083918309C04230510531F44F
:104B300098DCF8011082118218821982DF91CF91DE
:104B40001F910F910895A6E0B0E0E9EAF5E20C9418
:104B5000BB3C8091F3248A831B829091E0249923AB
:104B600041F0933019F487E791E00CC08DE790E0B5
:104B700009C087702DE7829FC0011124825B9F4886
:104B8000959587958093E1249093E22404EE14E2B6
:104B9000F12C7CE2E72EF801319790819F3FC1F024
:104BA0008091C5248F0D89838091E024882311F0A2
:104BB000EC8203C09C83F80180818D8321E04CE06E
:104BC00065E0CE0101960E948A0ECE0101967FDC3F
:104BD000F3940E5F1F4FF8E0FF12DDCF8091E024C9
:104BE000882341F0833019F41092E02403C08250EE
:104BF0008093E0242696E6E00C94D43C80916822D1
:104C0000882351F090DC89E28093F424809168221B
:104C10008150809368220895F2CBFF920F931F93E7
:104C2000CF93DF93FC01F0800181C281D381148195
:104C30008FE58093F424109268228091C52481111D
:104C400005C08091F324882309F4ABC080916922C8
:104C50008F1104C080916A22801729F0D0DBF09276
:104C6000692200936A228091DF248F3F09F499C062
:104C7000C0936B22D0936C2210936D22CC23F1F061
:104C800081111CC08091C524181761F0143651F0B1
:104C90008C2F8355823010F0CD3739F48FEF80930D
:104CA000DF247FC0C43509F47CC08D2F807F80361F
:104CB00009F077C0D067D0936C2267C0EEDB81111A
:104CC00005C08091DF24882309F46BC080916122A4
:104CD000811107C0E091DF24F0E0EE56F94FE49136
:104CE00001C0E82FE33541F4C43531F49091DF245D
:104CF0009E5F9093DF2404C0EC1711F080DB51C05D
:104D0000882309F444C0809162228E5F80936222DE
:104D1000C4DB811106C08091DF248E5F8093DF2485
:104D200036C080916B2280936122843671F5809128
:104D3000C62480936D2229C010936B2297E790932D
:104D40006C229091C52490936D228E5F8093DF2416
:104D5000109261228E30B9F489E692E25BDBDC01CD
:104D6000009781F02C9130E081E692E2821B930B58
:104D700005C0ED01C20FD31F48814D93A817B90795
:104D8000C0F31C923CDB112361F0E7DB0AC0809189
:104D9000DF24E82FF0E0ED56F94F14911F3F61F644
:104DA000C0CFCDB7DEB7E5E00C94D53C0F931F9391
:104DB000CF93DF93EC01A82FBD2FFD0101900020C0
:104DC000E9F73197EA1BFB0B8981823751F487E3BE
:104DD00090E00E94A1080E941F0881E080930525B1
:104DE0002AC0833731F50E2F80E1809366068FE766
:104DF0000E943505802F82500E943505229612E0D0
:104E000004C089910E9435051F5F1017D0F380E11F
:104E1000809365060E948D0804C081E090E00E94A6
:104E200066058AE30E94E4078F77B9F70E941F089E
:104E300002C010920525DF91CF911F910F91089527
:104E4000A0E8B0E0E6E2F7E20C94B93C80910525D9
:104E5000882309F458C0813011F580912024909165
:104E60002124A0912224B091232420916F2228177D
:104E700009F449C085E30E94E407813129F48AE3FB
:104E80000E9412080E941F088091202490912124E2
:104E9000A0912224B091232480936F2234C08FE309
:104EA0000E94E407D82E87FD2BC080E18093660620
:104EB0008FEF0E9435058E010F5F1F4F7801C02EC6
:104EC00006C080E00E943505F70181937F018E2D99
:104ED0008C198D15B0F380E18093650681E0809395
:104EE000EF2005C0F80181918F010E94D00A802F28
:104EF0008C198D15B8F30E941B0B8FEF8093EF2058
:104F000081E080930525C058DF4FE8E00C94D23C47
:104F1000CF93DF93C0E1C093610682E08093820665
:104F2000C09365068EE190E00E944905C093660635
:104F30008EE190E00E944905C09365068DE290E005
:104F40000E94490580E30E94120884E690E00E94D6
:104F50004905C0E0D0E0FE01E753F94F6491FE013E
:104F6000E853F94F84910E94F4072296C233D10589
:104F700091F780917122811108C083E30E94120889
:104F800084E090E00E94660511C0C0E0D0E0FE0120
:104F9000ED54F94F6491FE01EE54F94F84910E9453
:104FA000F4072296C631D10591F7E7CF84E30E943A
:104FB000120885E30E94E4078D30C1F7DF91CF919D
:104FC0000895A2E3B0E0E7EEF7E20C94BD3C8091D7
:104FD0007022882309F4A9C00E944305882309F49C
:104FE0008FC08FE30E94E4078F778983823368F054
:104FF0008AE30E94120886E30E9412088DE30E9451
:10500000120884E30E94120890C080E18093660633
:105010008FEF0E94350510E00BC080E00E9435053F
:10502000E2E0F0E0EC0FFD1FE10FF11D80831F5F58
:105030008981181790F380E00E943505082F80E0E1
:105040000E94350580E18093650684E30E94120882
:1050500085E30E94E4078D30C1F72A8196E7922705
:105060009A8392E00CC041E050E04C0F5D1FE40FCA
:10507000F51F30812452232720839F5F232F8981AE
:10508000E92FF0E0981778F381E090E08C0F9D1FF6
:10509000E80FF91F90818B819827908380912724B6
:1050A00084FF13C081E60E94D00A10E00AC0E1E04C
:1050B000F0E0EC0FFD1FE10FF11D80810E94D00A8E
:1050C0001F5F8981811798F71BC081E40E94D00A75
:1050D00010E00AC0E1E0F0E0EC0FFD1FE10FF11D70
:1050E00080810E948F0B1F5F8981811798F78091C3
:1050F000272485FF03C0802F0E948F0B0E941B0B6B
:1051000085E30E94E407813029F0813161F48AE36C
:105110000E94120886E30E9412088DE30E94120882
:1051200084E30E9412080E945809E296E4E00C947D
:10513000D63C8F929F92AF92BF92FF920F931F9394
:10514000CF93DF93CDB7DEB7EA97CDBFDEBF41E3A4
:10515000BE016F5F7F4F01960E94930B8C019927D0
:105160000197298130E08217930709F0B4C080913C
:105170007022811105C0CCDE83E090E00E946605BC
:10518000FB808A8196E789278A8322E009C0DE01B5
:10519000A80FB91F8C9184529081892780832F5F3B
:1051A0003981822F90E0E1E0F0E0EC0FFD1FE80F85
:1051B000F91F231760F380818F258083CE01C79666
:1051C0000E94C50985E30E94120885E30E94E40756
:1051D000833181F1CE01C3960E94C5094BA95CA918
:1051E0006DA97EA98FA998ADA9ADBAAD8417950711
:1051F000A607B70760F44A015B01881A990AAA0A50
:10520000BB0A2DEB82169104A104B10470F4481777
:1052100059076A077B0770F484549F4FAF4FBF4F05
:1052200084179507A607B70728F48AEF96E00E942F
:105230000E0B34C085E30E94E407833119F6F4FEB7
:105240000BC088E790E00E94660588E790E00E9426
:10525000660588E790E002C08AE090E00E9466055B
:1052600080E1809366068FE70E9435058824839449
:10527000912C8C0E9D1E540105C0F50181915F019A
:105280000E9435058A2D88198017B8F380E1809334
:10529000650685E30E94E4078331D9F385E30E9424
:1052A000E407863149F48BE30E94120886E30E94EA
:1052B00012088DE30E94120880917022882349F021
:1052C00084E30E94120885E30E94E4078D30C1F751
:1052D00002C00E94B711EA96CDBFDEBFDF91CF9129
:1052E0001F910F91FF90BF90AF909F908F90089566
:1052F000FC012181223731F0223559F481E080937D
:10530000712202C01092712203DE81E0809370222C
:105310000895233711F401960CCF1092702208954E
:10532000CF93DF93C0E1C093610682E08093820651
:10533000C09365068EE190E00E944905C093660621
:105340008EE190E00E944905C09365068DE290E0F1
:105350000E94490580E30E94120884E690E00E94C2
:105360006605C0E0D0E0FE01EC5FF84F8491813427
:1053700048F083E30E94120884E090E00E946605F2
:10538000CFEF0BC0FE01EB5FF84F64910E94F40772
:105390002296CC33D10539F7ECCF84E30E94120872
:1053A0008AE090E00E944905C150B9F781E08093FE
:1053B0007222DF91CF910895EF92FF920F931F9386
:1053C000CF93DF93EC018B01F880F39461157105A5
:1053D00019F0E4E6F0E002C0E0E0F0E028E0F29E40
:1053E000C00111246AE070E00E947A3C9B012E0FFC
:1053F0003F1FC901AA2797FDA095BA2FE091242449
:10540000F0912524AF0160E070E0481759076A0762
:105410007B0728F489E497E00E940E0BDDC0E21BB5
:10542000F30BE0932424F0932524809172228111C0
:1054300001C076DF85E30E94E4078D3071F08AE5D4
:105440000E94D00A85E40E94D00A82E50E94D00A18
:1054500082E50E94D00A81E34DC08091792290912B
:105460007A22A0917B22B0917C22892B8A2B8B2BD4
:1054700069F40E948D0885E30E94E407833109F4F2
:1054800044C02BC081E090E00E94660580912024FA
:1054900090912124A0912224B0912324409179223B
:1054A00050917A2260917B2270917C22841795071B
:1054B000A607B70739F38091202490912124A09169
:1054C0002224B09123244F5F5F4F6F4F7F4F84178B
:1054D0009507A607B707B1F2CCCF8AE50E94D00A9C
:1054E00085E40E94D00A82E50E94D00A82E50E94EB
:1054F000D00A82E30E94D00A85E30E94E4070E945A
:105500008F0B0E941B0B0CDF67C0012B51F480E155
:10551000809366068FE70E943505EC2E0C2F1D2F19
:105520000FC00AE010E084E690E00E94660501509A
:105530001109C9F7ECCFF80181918F010E9435055F
:10554000802F8E198F15B8F380E180936506C8EC23
:1055500085E30E94E4078D3031F485E30E94E4077F
:105560008D3069F423C085E30E94E4078331A9F7F5
:1055700081E090E00E946605C15051F7EECF8AE5C8
:105580000E94D00A85E40E94D00A82E50E94D00AD7
:1055900082E50E94D00A83E30E94D00A85E30E943C
:1055A000E4070E948F0B0E941B0BBADE80917222CF
:1055B000811102C00E94B711809120249091212472
:1055C000A0912224B09123248093792290937A226F
:1055D000A0937B22B0937C22CDB7DEB7E6E00C949B
:1055E000D43CACE0B0E0E7EFFAE20C94BC3CFC0148
:1055F0008BE0898381818A831B8282E08C8387810F
:105600008D8380858E8381858F8384818887858142
:10561000898786818A871B861C8684E190E00E94A8
:10562000660560E070E08E010F5F1F4FC801C4DEA9
:105630008AE50E94D00AF12C07C0F801E80FF91F93
:1056400080810E948F0BF3948F2D90E0298130E0B0
:105650002817390794F78091272485FF03C080E03D
:105660000E948F0B0E941B0B2C96E5E00C94D53CFE
:10567000CF93DF93EC0190917322911108C0809138
:105680007422811104C0809175228823B1F08B812E
:10569000803321F0803411F0803579F48F818913C3
:1056A0000CC0988580917422981307C099858091C9
:1056B0007522981302C0CE0194DF80917622811169
:1056C00008C090917722911104C09091782299237B
:1056D000A9F098819B3091F49B81903479F49F815B
:1056E00098130CC0988580917722981307C09985EC
:1056F00080917822981302C0CE0173DFDF91CF91A1
:105700000895AEE1B0E0E7E8FBE20C94BB3C809189
:105710007222882309F46EC00E944305882309F48D
:105720005BC08FE30E94E4078F778E3108F401C0DD
:105730008DE1898380E1809366068FEF0E943505B5
:1057400010E00BC080E00E943505E2E0F0E0EC0FD5
:10575000FD1FE10FF11D80831F5F8981181790F3F2
:1057600080E00E943505E82E80E00E94350580E14A
:10577000809365068E010F5F1F4FC80179DF80910E
:10578000272484FF10C08AE70E94D00AF12C07C0AA
:10579000F801EF0DF11D80810E94D00AF3948981F8
:1057A0008F15B0F727C08AE50E94D00AF12C07C0F8
:1057B000F801EF0DF11D80810E948F0BF394898118
:1057C0008F15B0F78091272485FF03C08E2D0E948E
:1057D0008F0B0E941B0B0EC085E30E94E4078131F2
:1057E00049F48AE30E94120886E30E94120884E3C7
:1057F0000E9412086E96E6E00C94D43CAEE1B0E054
:10580000E4E0FCE20C94BD3C8C01FC018181823718
:1058100011F486DD36C0833711F0863601F54DE18F
:10582000BE016F5F7F4FC80102960E94930B9927BC
:105830000197298130E08217930729F080E597E0EE
:105840000E940E0B1EC061E070E0F8018181833779
:1058500011F060E070E0CE010196AEDD12C081363D
:1058600021F443E063E772E205C0873741F443E087
:1058700066E772E2C80102960E94930B02C0109282
:1058800072226E96E4E00C94D63CFF920F931F9325
:10589000CF93DF93F82EC0E1C093610682E080933E
:1058A000820610927D22C09365068EE190E00E94F0
:1058B0004905C09366068EE190E00E944905C093B9
:1058C00065068DE290E00E94490580E30E9412087F
:1058D00084E690E00E9449058F2D8150833008F0C6
:1058E0003FC0C0E0D0E0FE01EB56F84F8491813418
:1058F00068F0C0E0D0E02F2D30E02150310984E184
:10590000829F8001839F100D11240BC0FE01EA5677
:10591000F84F64910E94F4072296CC33D10519F711
:10592000E8CFFE01E00FF11FE75AF84F8491813470
:1059300050F083E30E941208F0927D2281E090E013
:105940000E9466050DC0FE01E00FF11FE65AF84FF8
:1059500064910E94F4072296C431D10511F7E9CF72
:10596000CDB7DEB7E5E00C94D53CA1E0B0E0EBEBC1
:10597000FCE20C94BF3C1982FC0121812237A9F47E
:105980002281222331F0BE016F5F7F4F02960E9479
:10599000C10B8981982F9150933028F083EC97E0C8
:1059A0000E940E0B13C071DF0BC0283749F48091A1
:1059B0007D22882319F086E30E94120810927D222E
:1059C00080917D220E948F0B0E941B0B2196E2E0AA
:1059D0000C94D83CCF93DF93C0E1C093610682E082
:1059E00080938206C09365068EE190E00E9449058F
:1059F000C09366068EE190E00E944905C09365065B
:105A00008DE290E00E94490580E30E94120884E63E
:105A100090E00E9449058091AF258933D1F4C0E020
:105A2000D0E0FE01EC5BF74F6491FE01ED5BF74FB8
:105A300084910E94F4072296C233D10591F783E343
:105A40000E94120884E090E00E9466050E941F08F0
:105A500026C0843389F4C0E0D0E0FE01EE5EF74F4B
:105A60006491FE01EF5EF74F84910E94F407229645
:105A7000C233D10591F7E3CF813309F7C0E0D0E01D
:105A8000FE01E052F84F6491FE01E152F84F84911B
:105A90000E94F4072296C233D10591F7D0CFDF914F
:105AA000CF910895FC0190818091B425981318C07E
:105AB00091818091B525981313C092818091B6256C
:105AC00098130EC093818091B725981309C08085E3
:105AD0009091B825891302C081E008958F3FE1F3CA
