:10000000D8C40000FBC40000F9C40000F7C400001D
:10001000F5C40000F3C40000F1C40000EFC4000008
:10002000EDC40000EBC40000E9C40000E7C4000018
:10003000E5C40000E3C400000C940509DFC400001F
:10004000DDC40000DBC40000D9C40000D7C4000038
:10005000D5C40000D3C40000D1C40000CFC4000048
:10006000CDC40000CBC40000C9C40000C7C4000058
:10007000C5C40000C3C40000C1C40000BFC4000068
:10008000BDC40000BBC40000B9C40000B7C4000078
:10009000B5C40000B3C40000B1C40000AFC4000088
:1000A000ADC40000ABC40000A9C40000A7C4000098
:1000B000A5C40000A3C40000A1C400009FC40000A8
:1000C0009DC400009BC4000099C4000097C40000B8
:1000D00095C4000093C4000091C400008FC40000C8
:1000E0008DC400008BC4000089C4000087C40000D8
:1000F00085C4000083C4000081C400007FC40000E8
:100100007DC400007BC4000079C400000C948417F7
:1001100075C4000073C4000071C400006FC4000007
:100120006DC400006BC4000069C4000067C4000017
:1001300065C4000063C4000061C400005FC4000027
:100140005DC400005BC4000059C400000C940F178C
:1001500055C4000053C4000051C400004FC4000047
:100160000C9402320C944E320C94B33247C400000B
:1001700045C4000043C4000041C400003FC4000067
:100180003DC400003BC4000039C4000037C4000077
:1001900035C4000033C4000031C400002FC4000087
:1001A0002DC400002BC4000029C4000027C4000097
:1001B00025C4000023C4000021C400001FC40000A7
:1001C0001DC400001BC4000019C4000017C40000B7
:1001D00015C4000013C4000011C400000FC40000C7
:1001E0000DC400000BC4000009C4000007C40000D7
:1001F00005C400000C94C94201C40000545156517A
:100200006651625168516C5170517F519351A451A4
:10021000A651A951B751AC51AF51B45142030D622F
:10022000613B43D20746E20F69CF1D6B1C2241E6BA
:100230002B709D315A6C2E47E50F4D17104B8610D1
:10024000550E1159171F52D80B54872556660D5756
:10025000490C58951265260D6644296D522F6CF194
:100260000C74740975F5197891084530347AAB1C13
:10027000000000072E050DD391FF080500000C00BB
:1002800021656A2D3B1322F862073F181D1CC70029
:10029000B0876BF8B611EA2A001F41000D2E2D071A
:1002A000D3913D04320000060021656A55E43023F5
:1002B000B900070018146C070090876BF85611E915
:1002C0002A001F410000030F1E2627000000030F15
:1002D0001E2536386700030F256740605000030F66
:1002E000275188838100030F2750C8C3C20027000D
:1002F0000000000000006700000000000000500047
:100300000000000000008100000000000000C200AA
:100310000000000000203D2000202F2000504C4C09
:10032000300D0A00504C4C310D0A00203D20006E6B
:100330006100203D2000202F200043554E585F567D
:1003400031005620322E36372043554C383638008F
:100350000E03430055004C00380036003800000002
:10036000160362007500730077006100720065007B
:100370002E006400650000000403090409028300E4
:10038000040100C032080B0002020201000904004F
:1003900000010202010005240010010424020605E8
:1003A00024060001070583030800FF090401000279
:1003B0000A0000000705020240000507058102400F
:1003C0000005080B020202020100090402000102FA
:1003D000020100052400100104240206052406027F
:1003E00003070586030800FF09040300020A000052
:1003F00000070505024000050705840240000512BC
:10040000011001EF020108EB034E2001000102DCA4
:10041000014C4F56460D0A00424F56460D0A000049
:1004200001022E030104AA050F06FF070008000BB6
:10043000060D210E740FAD104B11F8121613721524
:1004400041181819161B0323E9242A2500261F3EEC
:10045000500001022E030104AA050F06FF07000841
:10046000000B060D210E660F6610CA1193120613BB
:10047000521535181819161B0323E9242A250026BE
:100480001F3E500001022E0301045505F006FF0730
:100490000008000B060D210E660F991059118312EA
:1004A0001E13521535181819161B0323E9242A2583
:1004B00000261F3E500D2E2D07D3913D0432000023
:1004C000060010B07155E43023B900070018146C11
:1004D000070090876BF85611E92A001F41000D2E86
:1004E0002D07D3913D04320000060010ABA5550A3C
:1004F0003023B900070018146C070090876BF8567A
:1005000011E92A001F4100012E4604AA540FE00001
:100510000000060021656A97831663B947070C2916
:10052000366C074091876BF85611E92A001F41008D
:1005300054585F494E49545F4552525F00547261AE
:100540006E736D6974740D0A00636F6D6D616E6416
:100550006C696E65706172616D657465723A2000D8
:100560000D0A537472696E676C656E6774683A2021
:1005700020202020000D0A4E6578742043686172A7
:1005800061637465722028696E74292061667465E0
:100590007220706172616D65746572202873686F76
:1005A000756C64206265206C696E6520656E6420E0
:1005B000636861726163746572293A20000D0A41B3
:1005C0006D6F756E74206F66204279746573202894
:1005D0004865782920666F756E6420696E7369645A
:1005E0006520636F6D6D616E64206C696E6520704F
:1005F0006172616D657465723A2020202020202090
:1006000020202020000D0A005469636B2054696D7E
:1006100065723A2020202020202020202020000D5C
:100620000A004B65794F666654696D653A20202053
:100630002020202020202020006D7365630D0A00FB
:100640004B65794F666654696D6520696E207469E3
:10065000636B733A2020005B6865785D0D0A005477
:1006600069636B2054696D65723A20202020202038
:100670002020202020005B6865785D0D0A00426C18
:100680006F636B2053746172742054696D653A20F6
:1006900020202020005B6865785D0D0A004B65799D
:1006A0004F666654696D653A202020202020202066
:1006B000202020005B6865785D0D0A007469636B1B
:1006C000732D426C6F636B537461727454696D6502
:1006D0003A20005B6865785D0D0A00426C6F636BC1
:1006E000320D0A00426C6F636B330D0A004B6F7062
:1006F00070205472616E736D69747420436F6D6DF8
:10070000616E64206E6F7420657175616C20746F0A
:100710002000204279746573206F72204B657963E5
:100720006F6465206973206E6F206865782076613C
:100730006C75650D0A006B72452D526563656976AF
:1007400065456E640D0A006B72532D5265636569D1
:10075000766553746172740D0A0052585F494E49B0
:10076000545F4552525F4D41524353544154455F8B
:100770005258004B6F707020526563656976652032
:10078000537562436F6D6D616E6420556E6B6E6F55
:10079000776E0D0A004B6F707020436F6D6D616E48
:1007A0006420556E6B6E6F776E0D0A000053530018
:1007B000547D7DFFFF4B4B7E7E004E2F41004E2F20
:1007C0004100454F420D0A004E2F41000B08105BBF
:1007D00011F81547191D1A1C1BC71C001DB221B6A4
:1007E00023EA0007022E030D04E905CA070C0B06D5
:1007F0000D210E650F6A10C81193120315341733BB
:10080000181819161B4321562500261129592C8129
:100810002D353EC34552523A4343410D0A0000076D
:10082000024604C605260B0610C8119312031322B4
:100830001534173F182819161B4321562500261179
:100840000D210E650F6A070C160720F81E871F6B17
:1008500029592C812D353EC3FF004C454E4552523F
:100860000D0A004C4F56460D0A004C454E4552525B
:100870000D0A003F20280020697320756E6B6E6F93
:10088000776E2920557365206F6E65206F66003185
:100890003A0020402000203F0057495A4348495021
:1008A00020496E697469616C697A65642066616962
:1008B0006C2E0057495A4348495020496E69746963
:1008C000616C697A656420737563636573732E0068
:1008D000556E6B6E6F776E20504859204C696E6B69
:1008E000207374617574732E0D0A00504859204CA2
:1008F000696E6B207374617475733A20004F4646BD
:10090000004F4E00047605961700000602000B0803
:100910000C000D210E650F6A106A114A120613228F
:1009200014F80A00154721B622101818192E1A6D4E
:100930001B041C091DB223EA242A2500261F29595D
:100940002C812D352E0907040800090006FF3EC240
:10095000FF0454053D1700000602000B080C000DB3
:10096000210E6B0FD0105C11041206132214F80A2A
:1009700000154421B622101818192E1ABF1B431C4B
:10098000091DB523EA242A2500261F29592C812D6B
:10099000352E0907040800090006FF3EC2FF534D2B
:1009A0004F444500544D4F4445004F4646004F4686
:1009B000460011241FBECFEFDFE3DEBFCDBF00E056
:1009C0000CBF18BE19BE1ABE1BBE13E2A0E0B0E2F7
:1009D000E0E3F1EC00E00BBF02C007900D92A239FA
:1009E000B107D9F71BBE2CE3A2E9B3E201C01D9207
:1009F000A130B207E1F7F4D10C94966001CB80915D
:100A000050008460809350008091510082FFFCCFA1
:100A1000809150008160809350008091510080FF50
:100A2000FCCF809156008093560081EA80936D0040
:100A300087E080936E0081E08093680088E1809376
:100A4000550080915000806180935000809151004A
:100A500084FFFCCF80915000826080935000809191
:100A6000510081FFFCCF809156008093560082E1B7
:100A7000809365008AE78093660021E02093600000
:100A80003FB7F89488ED90E0A0E4B0E01BBEFD0114
:100A900084BF20833FBF8FE39FE10197F1F700C040
:100AA00000008091400087E08093A20088ED84BF21
:100AB00083E2809380008091820080FDFCCF0895C6
:100AC00081E08CBFE0910020F091012019950895FC
:100AD0008091780083FF0FC083E390E050D6882395
:100AE00051F08091780088608093780060E083E323
:100AF00090E03ED6E5CF0895E0E4F6E080E1818322
:100B0000858380EB818380E4828381E58093C008C4
:100B100008958093C3088091C20887FFFCCF80911D
:100B2000C3080895E0E0F6E080858295817008951D
:100B3000E0E0F6E0808585FB882780F90895109233
:100B4000000A1092010A8093260A9093270A1092B5
:100B5000200A1092210A80910C0A816080930C0A6D
:100B600088E08093000A80910C0A80FD02C0A8955D
:100B7000FACF1092000A0895CF93DF93EC018134ED
:100B8000910560F488EE93E09C01C29FC001C39F71
:100B9000900DD29F900D1124D2DF05C088EE93E016
:100BA000CEDF2197D9F7DF91CF910895E0E0F8E00B
:100BB00010A211A228E020838FE39FE186A397A3D0
:100BC000118281E08683E0E4F8E010A211A2808324
:100BD0008FE190E086A397A388EC80938001E0E406
:100BE000F9E010A211A2208380E593EC86A397A3DD
:100BF000168208950895CF92DF92EF92FF921F938D
:100C0000CF93DF93EC016A017B01122FCB01BA0174
:100C1000969587957795679560587B47814E9F4F4E
:100C2000A70196010E940B5A215031093F832E8360
:100C300083E08D8388E18C83C1148BE4D806E104C2
:100C4000F10409F494C0D8F580E6C81689E0D80606
:100C5000E104F10409F47BC0C8F488E5C81682E019
:100C6000D806E104F10409F4A6C080EBC81684E0BC
:100C7000D806E104F10409F467C08CE2C81681E0EB
:100C8000D806E104F10409F09FC05BC080E8C816F3
:100C900085E2D806E104F10409F461C080E4C816D5
:100CA00088E3D806E104F10409F45DC080ECC816BD
:100CB00082E1D806E104F10409F086C04CC0C114F9
:100CC00081EED806E104F10409F461C0C0F4C11456
:100CD00086E9D806E104F10409F451C08DE3C81691
:100CE00086E9D806E104F10409F44DC080E8C8168D
:100CF00080E7D806E104F10409F066C03CC0C114E5
:100D000082ECD80681E0E806F10409F448C048F412
:100D1000C1148CE2D80681E0E806F10409F054C061
:100D20003AC0C11484E8D80683E0E806F104D9F19A
:100D3000C11488E0D80687E0E806F10409F044C051
:100D400036C08FEC90E009C08CE090E036C08CE0BB
:100D500090E026E033C08CE090E025E02FC08CE0EE
:100D600090E024E02BC08AE890E020E027C08CE0EF
:100D700090E023E023C089E890E02FEF1FC08CE0D3
:100D800090E022E01BC08AED9CE02AEF17C087E8C4
:100D900090E02EEF13C08CE090E021E00FC083E8DC
:100DA00090E02DEF0BC08BE790E02CEF07C08BE6B7
:100DB00090E02BEF03C089E190E027E08E8322953D
:100DC000207F292B2F831D83DF91CF911F91FF90CF
:100DD000EF90DF90CF90089583D380E090E0089566
:100DE00077DE0DDE07DFE2DE60E070E08CEE96E09D
:100DF0000E94035DC4E0C09381067EDE54D60E944B
:100E00007537ACD60E9475330E94BC3078940E942E
:100E100027250E946C1284EE9EE28093FC2590931D
:100E2000FD250E940A198DE080939523C0938606C4
:100E300016D097D60E944D360E9476146BD20E942F
:100E40008E290E94971A0E944F2A0E94EF2D0E941D
:100E500053390E9495310E94861C02D0EACF089532
:100E60000895A1E0B0E0E7E3F7E00C943F5A482F83
:100E70008A3008F048E088E0489F70011124E5ECD2
:100E8000F2E0EE0EFF1E8BE290E0F70164918C0120
:100E90000F5F1F4F49836CD4FFEFEF1AFF0AC801A1
:100EA00049810333110589F74550453010F461E15C
:100EB00001C067E184E290E05BD42196E6E00C9407
:100EC000585ACF93DF9382E090E0FC01E656FD4F45
:100ED0006491EC0121964CD4CE01CB32D105A9F717
:100EE00087E390E0FC01E45CFD4F6491EC01219606
:100EF0003FD4CE01C036D105A9F788E0B2DFDF913B
:100F0000CF9108951F93CF93DF93C0E4D6E010E113
:100F10001E83806CFEDD80E0FCDD1D83DF91CF91C0
:100F20001F910895EF92FF921F93CF93DF931F922B
:100F3000CDB7DEB790E4E92E96E0F92E10E1F70187
:100F4000168380646983E5DD6981862FE2DDF70120
:100F500015830F90DF91CF911F91FF90EF9008952F
:100F60001F93CF93DF93C0E4D6E010E11E83D1DD61
:100F70001D83DF91CF911F910895CF93CFEF09C0CB
:100F80008AE090E0DCDDC11104C080E280930B06B2
:100F900007C084E3E5DFC1508077803189F7F5CF62
:100FA000CF910895A2E0B0E0E8EDF7E00C94415A4B
:100FB0008C01FC0181818737E9F441E0BE016F5F5C
:100FC0007F4FC801029651D3892BA1F041E0BE01A9
:100FD0006E5F7F4FC801049648D3892B59F06A8110
:100FE0008981A0DF83E3BCDFC8DF89813AD38A81AE
:100FF00038D32CC041E0BE016E5F7F4FC80101961F
:1010000034D3892B21F18A81893969F410E0812F49
:1010100079DF27D3812F8770873009F4AED21F5F25
:101020001033A9F714C06EDF182F83E459D28A81D8
:1010300018D385E193E094D2812F13D389E193E013
:101040008FD240E262E0812F90E09BD296D222962E
:10105000E4E00C945A5ACF9310920B0686E380DF9B
:10106000CFEF05C08AE090E06ADDCC2331F085E364
:1010700077DFC15080778032A9F7CF910895EF9242
:10108000FF920F931F93CF93DF93EC0110921A25D9
:1010900010E11093410610920B06109345068EE165
:1010A00090E04DDD109346068EE190E048DD109310
:1010B00045068DE290E043DD80E352DF84E690E078
:1010C0005BDD1093460680E424DD8E01075D1F4F33
:1010D0007E018FEFE81AF80ACE0151D31ADDE7013D
:1010E000E016F106A9F780E1809345068093460655
:1010F0008EE70FDD8BE290E0EC01219640D309DD15
:10110000CE01C333D105C1F780E18093450683E367
:1011100027DF81E090E030DDCDB7DEB7E6E00C946C
:10112000585AA1E0B0E0E7E9F8E00C94435A22E015
:10113000298341E0BE016F5F7F4F019696D289817E
:1011400090DE82E090E09BDF2196E2E00C945C5A16
:1011500086E306DF1092FE251092182510921A25BC
:10116000089582E090E08BDF81E08093FE2510926D
:10117000182510921A2508951F93CF93DF93D82F27
:10118000162FC0E085E3BEDE8D1739F0812F90E089
:10119000D6DCC150B9F781E001C080E0DF91CF918A
:1011A0001F91089585E2AEDE8F3311F080E008953F
:1011B00086E3D6DE80919223811104C08DE193E015
:1011C000CFD102C08DE3CCDE83E3CADE64E081E0F0
:1011D000D3DF85E297DE8F3349F780919223811127
:1011E00003C084E293E0BCD181E0089585E38ADE08
:1011F0008D3051F485E286DE8F3331F4D3DF84E322
:10120000AFDE80778031D9F708951F920F920FB625
:101210000F92112408B60F9218BE09B60F9219BE8C
:101220000BB60F921BBE8F939F93AF93BF93EF9319
:10123000FF938091002690910126A0910226B09103
:1012400003260196A11DB11D8093002690930126CF
:10125000A0930226B09303268091FF258F5F809391
:10126000FF25EAE5F7E280819181181619061CF442
:10127000019780839183369687E2E237F80799F7E2
:101280008091742790917527009729F0019780939A
:10129000742790937527809187278F3F19F081508D
:1012A00080938727FF91EF91BF91AF919F918F918D
:1012B0000F900BBE0F9009BE0F9008BE0F900FBE8F
:1012C0000F901F9018952FB7F894409100265091D9
:1012D00001266091022670910326FC014083518310
:1012E000628373832FBF0895A4E0B0E0EAE7F9E0DA
:1012F0000C94435ACE010196E6DF8C81B2D18B81EA
:10130000B0D18A81AED18981ACD137D12496E2E0C7
:101310000C945C5A1F93CF93DF9380910026909199
:101320000126A0910226B09103262091932328172D
:1013300009F460C08091002690910126A0910226B8
:10134000B091032680939323A895CAE5D7E210E0D5
:1013500028813981232B19F4812F0E94B9271F5F1F
:1013600026961430A9F78091742790917527892BC0
:1013700011F40E94112880918727811102C00E94D8
:101380006C2880919326882339F08150809393268E
:10139000811102C00E94301B8091FF258D3750F1D2
:1013A0001092FF250E9498598091022081FF03C06E
:1013B00084E08093870680910426909105268438E6
:1013C00023E0920728F40196809304269093052643
:1013D000809194238F5F809394238C3359F41092DF
:1013E0009423809159278F5F809359278C3310F075
:1013F00010925927DF91CF911F910895CF93DF93DA
:10140000FC018381843509F068C0808120E030E0F0
:10141000422F435F481750F050E090E09C012F505E
:1014200031094217530709F058C00AC02F5F3F4FD8
:10143000DF01A20FB31F1F969C919B3349F7ECCF9E
:10144000AC014E5051094E0F5F1FDA0113962C91DB
:10145000243509F042C0DC011B97AE0FBF1F348159
:1014600011962C911197321338C0358112962C9118
:101470001297321332C0368113962C911397321380
:101480002CC0378114962C911497321326C04197A3
:1014900015962C9115978E0F9F1FEC012B83169696
:1014A0008C911697EA01898319968C9119978A83F2
:1014B0001A968C911A978B831B968C911B978C8311
:1014C0001C968C911C978D831D968C918E838081A8
:1014D0008A50808382818A508283DF91CF910895E0
:1014E000CF93C82F8091952382FF04C06C2F87EB88
:1014F00093E3C2D38091C737843041F48091952320
:1015000080FF04C06C2F89E997E2B6D380919E26B4
:101510008823C9F08091952383FF15C0CA3099F0C4
:10152000CD3011F46BE301C06C2F8EE096E2A4D3B2
:10153000CD3019F48EE096E261DF83E0809393264C
:1015400082E080939926CF910895CF93DF93EC01A9
:1015500001C0C6DF89918111FCCFDF91CF91089541
:10156000CF93DF93EC0102C0BBDF2196FE01849193
:101570008111FACFDF91CF9108958DE0B1DF8AE03C
:10158000AFCFA6E0B0E0E7ECFAE00C94415A062FAA
:101590001E8215E02AE030E01150E1E0F0E0EC0FAF
:1015A000FD1FE10FF11DB9010E94E459805D8083A8
:1015B000CB010150009759F01111EECF08C0115026
:1015C000E1E0F0E0EC0FFD1FE10FF11D4083015061
:1015D00007FD02C01111F3CF81E090E08C0F9D1F39
:1015E000810F911DB2DF2696E4E00C945A5AA5E0D3
:1015F000B0E0EDEFFAE00C94435A1D8224E0382F5E
:101600003F702150E22FF0E03A3010F4305D01C01D
:10161000395CA1E0B0E0AC0FBD1FEA0FFB1F3083C7
:1016200034E0969587953A95E1F76150009739F740
:1016300008C02150E1E0F0E0EC0FFD1FE20FF11DCA
:101640004083615067FD02C02111F3CF81E090E03B
:101650008C0F9D1F820F911D78DF2596E2E00C9480
:101660005C5A40E362E090E0C2CFFB0122C0213629
:1016700008F02052A22FA053AA3010F42A2F05C040
:10168000A22FA154A63018F42753232B05C02032D3
:1016900091F02A3381F005C0552331F02193415058
:1016A00041F4E61BF70B0DC0322F3295307F51E02D
:1016B00002C050E030E0DC012D91CD012111D7CFE7
:1016C000F0CFCF010895FB0114C0532F50535A306F
:1016D00040F45AE0259F300D1124232F205351E070
:1016E0000CC0303211F03E3289F4442329F02193AA
:1016F000415050E020E001C050E0DC013D91CD01BF
:101700003111E3CF552311F041112193E61BF70B63
:10171000CF01089520E030E05AE00EC0E42FE053FE
:10172000EA3050F4F9015E9F90015F9F300D112463
:1017300020533109240F311DFC014191CF0141118A
:10174000EDCFFB01208331830895982F92959F70F0
:101750009A3010F4905D01C0995CFB0190838F700A
:101760008A3010F4805D01C0895CFB01818308959B
:101770000E948F5F8091CF0187FDFCCF08950C946C
:101780007F5F08951F93CF93DF930AC0EC012196EA
:10179000F6DF67DF112311F08AE3A2DE612FCE01AD
:1017A000162F11506111F2CFDF91CF911F91089543
:1017B000ABE0B0E0EEEDFBE00C94415AFC0121817E
:1017C000283779F52281222309F438C02381222386
:1017D000A9F141E0BE01655F7F4F029646DF8B8530
:1017E00040DF8BE293E0BCDE8E010F5F1F4FB8013C
:1017F0008B850E948F37811110C01B860AC0F801AB
:10180000E80FF11D80812DDF80E26ADE8B858F5F1E
:101810008B878B858A3098F337C08FE293E0A0DE08
:1018200033C02D3421F466E08AEF97E005C02035FF
:1018300029F460E18AED97E0A5DF26C01A821982BB
:1018400042E0BE016F5F7F4F01960FDF823011F4DF
:101850008A8101C089818B878B8590E090DF182F6A
:1018600082E53EDE40E364E08B8590E0C0DE82E30B
:1018700093E076DE812FF5DE86E393E071DE40E2D1
:1018800062E0812F90E07DDE78DE2B96E4E00C9420
:101890005A5AA6E0B0E0EFE4FCE00C943D5A8C010B
:1018A000FC0181818837D9F48281882309F456C0EC
:1018B0008381882309F452C08481882309F44EC0AF
:1018C00041E0BE016F5F7F4FC8010396CEDE41E06D
:1018D00050E0BE016F5F7F4FF80182817CC0893686
:1018E00009F03CC0F80182818D3651F446E0BE011A
:1018F0006F5F7F4FC8010396B8DE82E046E067C0A5
:10190000843649F4BE016F5F7F4FC801039602DF42
:1019100083E041E05CC0813649F444E0BE016F5F82
:101920007F4FC8010396CFDE84E016C08E3649F49F
:1019300044E0BE016F5F7F4FC8010396C4DE85E0BF
:101940000BC0873609F049C044E0BE016F5F7F4F8E
:10195000C8010396B8DE86E044E039C043E0BE012A
:101960006F5F7F4FC801019680DE8230B0F1298120
:10197000823019F4C22ED12C04C0D22EC12C2A815F
:10198000C22A7C01FF24FE01EE0DFF1D6081C6010D
:10199000EFDEEE0CFF1CFFEFEF1AFF0AE00EF11E68
:1019A00011C041E0BE016F5F7F4FC7015EDE892B32
:1019B000A1F08FEFC81AD80A6981C601D9DEE2E02A
:1019C000EE0EF11CF70180818111EBCF06C050E0D3
:1019D000BE016F5F7F4F0E94BE372696E8E00C94F1
:1019E000565A41E062E070E201963FDE60910220CB
:1019F00084E060FF03C08093850602C08093860662
:101A000084E390E0B5CEA1E0B0E0E9E0FDE00C9425
:101A1000435A1982009731F041E0BE016F5F7F4F5A
:101A2000019623DE89818F3F09F4FFCF882321F0BF
:101A300061E083E390E09CDEF89493E088ED08B6E3
:101A400084BF90938000A89508BEFFCFCF93DF930B
:101A5000EC0162E080E090E08BDE63E481E090E006
:101A600087DE2FDA60E080E690E082DE60E081E6EB
:101A700090E07EDE60E083E390E07ADE62E084E383
:101A800090E076DE60E080E690E072DE60E081E685
:101A900090E06EDE8981883719F080E090E0B3DF56
:101AA000DF91CF91089580E090E069DE823029F4E3
:101AB00081E090E064DE833419F080E090E0C6DFDE
:101AC00084E390E05CDE809302200895FC01818134
:101AD000883419F48AE393E002C082E493E040DDA5
:101AE0004CCDCF931FC08EE190E20E94F64397FF4A
:101AF00015C081E79DE08093FA259093FB25E09146
:101B0000FC25F091FD2581E0199580911F200E9410
:101B1000BC4080919B278823F9F009C0682F8CE195
:101B200098E2AAD080911E2887FFDDCFE2CF0E94E5
:101B30005B4181110AC010C089E997E2B3D0682FD8
:101B40008EE190E20E94654301C0C1E480919B2731
:101B5000882311F0C15081F7CF9108950C949142E0
:101B60000895BFDF8EE190E20E94DD4383E090E2C2
:101B70000E94DD430C94783F089508958EE190E231
:101B80000E94414383E090E20C9441438EE190E255
:101B90000E944D4483E090E20C944D44FC0180810E
:101BA000823039F5A18DA150A23028F4B0E0A15FB8
:101BB000BD4D4C9101C040E0808D823009F44860F9
:101BC000828D873059F018F4863069F405C088306A
:101BD00039F0893041F406C0416005C0426003C05D
:101BE000436001C0476064897589868997890C9430
:101BF000F0320895292F33272230310539F0233070
:101C0000310549F02130310521F128C0E3E8F0E049
:101C10008CE793E027C099278130910561F08230ED
:101C2000910581F0892BD1F4E8E7F3E0E491F0E04D
:101C300088E793E017C0E0E6F3E0E491F0E080E6A7
:101C400093E010C0E0E5F3E0E491F0E080E593E09C
:101C500009C0E2E1F0E08FEF93E004C0E0E0F0E0E3
:101C600080E090E0DA018D939C93CF010895FC0110
:101C70001282108211820895FC018FB7F89492812C
:101C800097FD0EC09F5F92839081DF01A90FB11D68
:101C900013966C939F5F903811F0908301C010826F
:101CA0008FBF0895FC019FB7F8948281811101C014
:101CB0000EC0815082832181DF01A20FB11D1396D6
:101CC0008C912F5F203811F0218301C011829FBFBA
:101CD0000895FA013081882369F0DB01A30FB11D5B
:101CE000E1E0F0E0022E01C0EE0F0A94EAF79C91C9
:101CF0009E2B9C93222319F0822F81500BC0832F9F
:101D00008F5F8C3010F4FA018083FB01E80FF11D26
:101D1000108287E090E00895CF93C82F80E18093F0
:101D20000506CC2319F080919A2302C08091982354
:101D300020E1829FC00111240E949F0580E18093D1
:101D40000606CC2319F08091992302C08091972335
:101D500020E1829FC00111240E949F05CF91089528
:101D6000A6E0B0E0E6EBFEE00C94335A6C01698328
:101D7000942EA22EEA82842F90E08D839E83209160
:101D80000426309105260296089F802D112499275C
:101D900087FD90952817390720F481E194E0E0DB76
:101DA00084C0281B390B209304263093052684E039
:101DB0008093850680911A25882339F010921A2580
:101DC00080EA92E2B2D311E001C010E08091FE25DA
:101DD000811101C0C6D93FD9F981EF2FF0E0EB8323
:101DE000FC83EE24E394F12CB12CC601890D911DE6
:101DF00097FC9A954C01612C712C05C080E08CDF1A
:101E00009FEF691A790AEB81FC816E167F06B4F3A5
:101E1000F981FF2311F081E07FDF412C512C17C0A5
:101E200097E0292E312C3601640C751CC701022C59
:101E300001C0880F0A94EAF7F301908189236CDFCF
:101E4000F1E02F1A310890F79FEF491A590AED81F6
:101E5000FE814E165F0624F387E0682E712C0DC0BC
:101E6000C701062C01C0880F0A94EAF7F40190819B
:101E7000892352DFF1E06F1A7108A614B70484F3C6
:101E80008A8190E00E94BC05015009F0B4CF809196
:101E90000726882311F071D802C086E361D811119A
:101EA0000E94FE2B84E0809386062696E2E10C9445
:101EB0004C5AADE0B0E0EFE5FFE00C94365A7C01FF
:101EC000162F842F022F6701C60ED11C462FB70193
:101ED00041D3D6018C931F5F1D8619825E2C67014A
:101EE00027E088248394912C32C047E0A42EB12CA3
:101EF0003701680E711CF4010A2C01C0EE0F0A9420
:101F0000EAF7D3018C91AE01435F5F4FBE016F5F73
:101F10007F4F8E23DEDE282FB1E0AB1AB10858F7D1
:101F2000D601ED916D010E2EE295E0250E2EE6957F
:101F3000E695E025F0E03196E1FB882780F9AE01D7
:101F4000435F5F4FBE016F5F7F4FC3DE282F8C2D35
:101F50008519811708F4C9CF222311F0215004C03C
:101F60008D858F5F8D8727E089E18093972380930C
:101F7000982385E28093992380939A233AE0E32E75
:101F80004D856CE0CE010196EBDE2D96EFE00C94D2
:101F90004F5AADE0B0E0EFECFFE00C94425A162F40
:101FA000242F4BE0BE016F5F7F4F01962D875DDBD5
:101FB0002D85412F682FCE0101967BDF2D96E3E022
:101FC0000C945B5A43E066E0E4CFEF920F93CF931B
:101FD000DF93CDB7DEB76097CDBFDEBF40E1BE0176
:101FE0006F5F7F4F019641DB69814A810B818C8154
:101FF000809398238D81809397238E8180939A2359
:102000008F8180939923E02EE2947FE0E7220F7086
:10201000242F2F7042954F70CE010896A1DE609656
:10202000CDBFDEBFDF91CF910F91EF900895A9E171
:10203000B0E0EDE1F0E10C943B5A4BE0BE016F5F84
:102040007F4F019612DB182F893009F05BC099E1B0
:10205000909397239093982390939A2382E380936D
:10206000992369E0CE0101967FD2E1E0F0E0EC0F28
:10207000FD1FE10FF11D8083198E1D868E010F5FFC
:102080001F4F6E018BE0C80ED11C27E0AA24A39439
:10209000B12C25C0E12CF12CF5010E2C01C0EE0F66
:1020A0000A94EAF7D8018C91AE01475E5F4FBE01FA
:1020B000635F7F4F8E230DDE282FBFEFEB1AFB0AE5
:1020C00088E0E816F10441F7AE01475E5F4FBE01BC
:1020D000635F7F4F81E0FDDD282F0F5F1F4F0C15E1
:1020E0001D05C1F6222311F0215004C0898D8F5F98
:1020F000898F27E0EAE0EE2E03E0498D6CE0CE0107
:102100000D962EDE6996EAE00C94545AA9E1B0E0EF
:10211000ECE8F0E10C94365A4BE08E010F5F1F4F54
:10212000B8010196A2DAF82E582E85E38093982301
:1021300096E19093972390939A23809399236F2D00
:10214000C8011ED2F801EF0DF11D80835394198E42
:102150001D86780127E0AA24A394B12C48014DC024
:10216000C12CD12C3401680E711CF5010C2C01C05E
:10217000EE0F0A94EAF7D3018C91AE01475E5F4FF0
:10218000BE01635F7F4F8E23A4DD282FBFEFCB1AE4
:10219000DB0A84E0C816D10441F7AE01475E5F4F09
:1021A000BE01635F7F4F81E094DD282FB4E0CB2E2A
:1021B000D12CF5010C2C01C0EE0F0A94EAF7D701DF
:1021C0008C91AE01475E5F4FBE01635F7F4F8E23F0
:1021D00080DD282FBFEFCB1ADB0A88E0C816D104B8
:1021E00041F7AE01475E5F4FBE01635F7F4F81E005
:1021F00070DD282FAFEFEA1AFA0A8E2D801B8515A5
:1022000008F4AECFAAE0EA2E03E0498D6AE0CE01E1
:102210000D96A6DD6996EFE00C944F5AEF920F935E
:10222000CF93DF9300D01F92CDB7DEB743E0BE015E
:102230006F5F7F4F019619DA8AE68093982394E2C4
:102240009093972391E290939A238093992380E827
:102250008C839FE0E92E03E026E043E060E0CE01BE
:1022600001967EDD2496CDBFDEBFDF91CF910F9129
:10227000EF9008956F927F928F929F92BF92CF922C
:10228000DF92FF920F931F93CF93DF93A62F1092AD
:102290000B2410920C24FC016181660F660F660FFF
:1022A0002381621B695F10920D24F12C70E047E0DE
:1022B000F7E0DF2EC12C20E007E010E0C1E0D0E025
:1022C0007DC0FC01EC0DF11D248130E00D2C02C01D
:1022D000359527950A94E2F721703327522FDD2098
:1022E00011F0DA9403C0C394E7E0DE2EAB3491F42E
:1022F000433009F081C0F11007C051115CC0109249
:102300000B2470930C2476C0F12C79C0AB3409F007
:1023100050C03CC04F3F41F5A634B9F4E72FF0E080
:10232000E35FFB4D4081042E42954025042E4695E7
:102330004695402550E04F5F5F4F41FB882480F871
:10234000912C8216930641F004C0A53429F4511152
:1023500003C0F0920B24D5CF7F5FE72FF0E0E35F5F
:10236000FB4D108247E029C0552319F1A63459F4DA
:10237000E72FF0E0E35FFB4D9E01042E01C0220F2A
:102380000A94EAF713C0A53409F0C0CFE72FF0E0B4
:10239000E35FFB4D9801241B310947FD33953E0156
:1023A00002C0660C771C2A95E2F793013081322B2C
:1023B0003083415002C0FF24F3942B2DB22EB394EE
:1023C000261708F47ECFF0920B2470930C246B1523
:1023D00088F4A53419F44F3F09F404C080910B240C
:1023E000882319F07F5F70930C2481E090910C2476
:1023F000911108C080E006C04F3F09F4A8CF5111E9
:10240000C5CFD7CFDF91CF911F910F91FF90DF9074
:10241000CF90BF909F908F907F906F900895E0E451
:10242000F9E01682E0913E248CE1E89FF00111244E
:10243000E556FC4D10820895FC012181243108F0FD
:10244000EECF662389F0DC01A20FB11D81E090E0A0
:10245000038002C0880F991F0A94E2F714969C919A
:102460001497982B14969C938381882319F081509C
:102470008383089587E083832F5F2183E20FF11D1B
:1024800014820895DC0111962C91119730E050E0F0
:10249000F901E41BF50B8C91EC30F105DCF4E53F20
:1024A000FF4FC4F090E070E0FC01E61BF70BEC304E
:1024B000F10584F4E53FFF4F6CF0280F391F640FDE
:1024C000751F261B370B2C30310524F481E0253F86
:1024D0003F4F0CF480E00895E0E0F6E080E1818376
:1024E000868380E28283158A81858C60818782EC75
:1024F00091E080930426909305261092B7231092C2
:10250000D3231092EF231092FE2508958091BD25CC
:1025100081110AC080910726882321F00E94B1080A
:102520000C94BD070C94A8080895FC012181211189
:102530000BC08091072695D840E265E08091042683
:10254000909105261ED819C841E067E076E2019611
:102550008CD8DCCF06C04150FB01E40FF11D908107
:10256000890F4111F8CF089520E006C06150FC01A9
:10257000E60FF11D308123276111F8CF822F0895D6
:10258000A0910B2440E035E020E012C06150FC0136
:10259000E60FF11D5081752F72957F702727370F39
:1025A000AA2311F0442319F05F702527350F4F5FE0
:1025B0006111ECCF320F40E1349FC0011124822B16
:1025C0000895FC0132812381A081B181A30FB11D47
:1025D0008C9190E0022E02C0959587950A94E2F7BF
:1025E0008170922F91509383211104C03F5F3283F9
:1025F00097E0938308958F929F92BF92CF92DF923C
:10260000EF92FF920F931F93CF93DF931F921F922E
:10261000CDB7DEB76C01812C912CB12CEE24E39464
:10262000F12C062F10E0015011091DC0C6014A838C
:102630006983C7DF4A816981882391F0442349F087
:102640009801281939098E2D01C0880F2A95EAF7BB
:1026500006C08E2D082C01C0880F0A94EAF7B82A0C
:102660008FEF881A980A861608F38B2D0F900F901B
:10267000DF91CF911F910F91FF90EF90DF90CF905E
:10268000BF909F908F900895A4E0B0E0EAE4F3E15A
:102690000C943A5A1B8227E02C839C012C5F3F4FFD
:1026A00029833A8310920C24FC012181338187E035
:1026B00090E0831B9109F8E02F9F800D911D11245C
:1026C000853491057CF554C00A2D10E040E068E0A7
:1026D000CE01019690DF035F1B4DF8018083982E99
:1026E000092C92949024092C969496949024CE01CF
:1026F000019667DF292D30E02F5F3F4F21FBCC246F
:10270000C0F8D12C90E0C816D90691F5CE010196FB
:1027100058DF81112DC0F8018081B826A394A092C2
:102720000C2401C0B12CA0900C24F5E0FA1560F641
:1027300040E068E0CE0101965EDF082F182F012EE1
:1027400012951025012E169516951025CE0101968D
:1027500038DF212F30E02F5F3F4F21FBEE24E0F8E0
:10276000F12C282F30E0E216F30611F481E0B012CC
:1027700080E02496EBE00C94535AA5E0B0E0E3EC43
:10278000F3E10C94405AFC011B8287E08C83CF015B
:10279000049689839A838081853009F050C0218115
:1027A000338187E090E0831B910938E0239F800DFF
:1027B000911D11248039910509F041C010920C241B
:1027C0000FE010EF29E812C0CE0101962D8313DF30
:1027D000080F111DEF2DF0E0E35FFB4D2D81282741
:1027E0002083282F2C5DF394F0920C24F0900C247D
:1027F0008EE041E068E08F1538F7CE010196FBDEF0
:10280000080F111DEF2DF0E0E35FFB4D80958083F5
:10281000F394F0920C2441E068E0CE010196EBDEE7
:10282000382F20E0021B130B41E068E0CE01019637
:10283000E2DE282F30E081E00217130709F080E084
:102840002596E5E00C94595AA4E0B0E0EAE2F4E100
:102850000C94425A1B8227E02C839C012C5F3F4F33
:1028600029833A83FC012181243099F583818130C9
:1028700081F510920C2414C0111106C067E0CE013E
:102880000196B9DE806804C068E0CE010196B3DE2F
:10289000E12FF0E0E35FFB4D80831F5F10930C247A
:1028A00010910C2441E0143038F367E0CE0101961A
:1028B000A2DEE12FF0E0E35FFB4D880F80831F5F16
:1028C00010930C2490910D2492959F7081E09A3082
:1028D00009F080E02496E3E00C945B5A8091062690
:1028E00080FD03C08460809306260895A1E0B0E0D7
:1028F000ECE7F4E10C943F5A19828091212488235B
:10290000B9F18091072687FF17C084E30E948207F0
:102910008058803458F0803C58F490E080559109FC
:10292000B3E095958795BA95E1F703C080E001C0C3
:102930008FE08F590E94700A8091072683FF16C08E
:1029400082E70E94700A8091072684FF04C080916C
:1029500022240E94700A86E60E94700A809107264F
:1029600084FF04C0809121240E94700A10922124C7
:1029700080912324882309F44EC284E08093850645
:10298000009124242CE1029F8001112405561C4D46
:102990008981811106C0C801F0DE882311F083E52A
:1029A0008983898181113DC066E4C80163DC882385
:1029B000C1F1F0900C24FA94F0920C244F2D6DE0AC
:1029C00074E286E0C7DD6F2D70E0FB01E35FFB4D35
:1029D000E0808E1105C093E09F1510F486E41EC0C0
:1029E000282F30E02F5F3F4FEE2DF0E02E173F07EE
:1029F00051F4E3E0EF1538F496E49983FB01E35FCB
:102A0000FB4D80830EC04F2D6DE074E28CE0A2DDA3
:102A10008E1106C0F3E0FF1518F484E5898301C028
:102A200019828981811116C065E4C80123DC8823DD
:102A300089F080910C24815080930C24893051F4CA
:102A400069E08DE094E290DD90911624891302C034
:102A500085E489838981811106C0C80115DE882338
:102A600011F088E489838981811106C0C801ECDEF8
:102A7000882311F084E789838981811133C0F801AB
:102A8000438D60912224C8014A96FCDC682FC8015E
:102A9000D3DC6BE4C801EEDB8823B1F0F0900C24AA
:102AA000FA94F0920C246F2D8DE094E269DDEF2D05
:102AB000F0E090910B24E91BF109E35FFB4D90815D
:102AC000891302C08BE48983898181110BC0F801CD
:102AD0008381982F9F5F9383873021F413828181B4
:102AE00081508183898181112AC0F80181818430DC
:102AF00031F58381843019F54EE16CE3C8014896C5
:102B0000C1DC8823E1F04EE160912224C8014A969D
:102B1000B9DC682FC80190DC20E0822F90E0FC0136
:102B2000E35FFB4DD801A80FB91F14968C918083E9
:102B30002F5F253090F320930C2482E5898339811F
:102B4000332309F4DAC02091072620FFD6C08091F4
:102B500006268E7F8B7F8093062621FD64C05091D0
:102B60002524F0900C245F113DC040E017C0842F55
:102B700090E0642F6F5FFC01EA5DFB4DDC01A35F19
:102B8000BB4D70818C91781741F040932524809142
:102B900006268D7F8093062605C0462F451738F3FD
:102BA0004093252445131EC04091002650910126D4
:102BB000609102267091032680913A2490913B24E3
:102BC000A0913C24B0913D24481B590B6A0B7B0B10
:102BD000463251056105710528F480910626816011
:102BE0008093062640E00BC0842F90E0FC01EA5D54
:102BF000FB4DDC01A35FBB4D8C9180834F5F4F1574
:102C000098F3409325248091002690910126A0916D
:102C10000226B091032680933A2490933B24A093FC
:102C20003C24B0933D243435F1F426FD1CC0809142
:102C30000C248530C0F080910F248B3479F08936D4
:102C400069F0833559F0843549F08D3739F08E3786
:102C500029F0809110248077803729F4809106260E
:102C6000816080930626B801CE01019637DE898106
:102C7000843569F490919E26992349F090915827C4
:102C8000911105C0909106269B7F90930626909106
:102C9000062692FF32C00E94700A80910B2488237E
:102CA00029F080910C24815080930C24F12C08C0D1
:102CB000EF2DF0E0E35FFB4D80810E94310BF39438
:102CC000E0910C24FE16A0F380910B24882351F090
:102CD000F0E0E35FFB4D808140E361E08F7090E0C6
:102CE0000E94F70A8091072685FF05C084E30E94B1
:102CF00082070E94310B0E94BD0A8091072682FF45
:102D00006FC080E70E94700A40E262E0F8018081B3
:102D100090E00E94C10AF801808D40E265E0F0E198
:102D20008F9FC00111240E94C10AF801818D40E2E9
:102D300065E0F0E18F9FC00111240E94C10AF801F3
:102D4000828D40E265E0F0E18F9FC00111240E9476
:102D5000C10AF801838D40E265E0F0E18F9FC00178
:102D600011240E94C10A40E263E0F801828190E0F0
:102D70000E94C10A40E263E0F801818190E00E9474
:102D8000C10AF801238140E262E087E090E0821B03
:102D900091090E94C10A80E20E94700A8091072670
:102DA00085FF08C084E30E9482070E94310B80E205
:102DB0000E94700AF8018381873019F081818F5F4A
:102DC0008183F12C07C0F801EF0DF11D84810E9471
:102DD000310BF394F8018181F816A8F30E94BD0A23
:102DE000F8011082809123248150809323248091C4
:102DF00024248F5F843019F08093242402C0109221
:102E0000242484E0809386068981843521F48DE032
:102E100094E20E947B282196E6E00C94585A1F9277
:102E20000F920FB60F92112408B60F9218BE09B672
:102E30000F9219BE0BB60F921BBE2F933F934F9369
:102E40005F936F937F938F939F93AF93BF93EF9312
:102E5000FF93109246098091072683FF03C08EE2FC
:102E60000E94700A80913E249CE1899FF001112408
:102E7000E556FC4D9081933018F09181923010F41A
:102E8000CEDA18C090912324933049F4809107261C
:102E900082FFF6CF88E194E00E94B00AF1CF9F5FF5
:102EA000909323248F5F843019F080933E2402C0D6
:102EB00010923E24FF91EF91BF91AF919F918F911E
:102EC0007F916F915F914F913F912F910F900BBE2A
:102ED0000F9009BE0F9008BE0F900FBE0F901F906D
:102EE0001895982F9552973160F46A3050F06732F8
:102EF00040F421E030E0681710F020E030E0C90134
:102F0000089580E090E008951F920F920FB60F92FF
:102F1000112408B60F9218BE09B60F9219BE0AB650
:102F20000F921ABE0BB60F921BBEFF920F931F9308
:102F30002F933F934F935F936F937F938F939F93C1
:102F4000AF93BF93CF93DF93EF93FF938091982735
:102F5000882321F082E08093982727C180919426CE
:102F6000823021F483E0809394261FC18091600910
:102F700090916109E4E096958795EA95E1F7182F1D
:102F8000C0913E248CE1C89FE0011124C556DC4D60
:102F90008881843031F41E3208F407C11F3448F0B0
:102FA000A5C0853031F4173108F4FFC0183208F09D
:102FB0009DC00E94980581110EC088818450823086
:102FC00038F461E0CE0138DA10926009109261099C
:102FD00010932224EAC000912224101B1093212474
:102FE000109260091092610988818450823020F427
:102FF00060E0CE0121DAD9C080914C0981608093D4
:103000004C09F880F1100DC0053608F0CEC0153619
:1030100008F0CBC0088F198F81E08A8382E0888313
:10302000C4C082E0412F602FF81270C0CE014896D4
:1030300029DA882301F1888D90E09C01220F331F4B
:10304000280F391F200F311D359527953595279568
:10305000288F298D30E0C901880F991F820F931F97
:10306000810F911D9595879595958795898F8A8173
:103070008F5F8A839AC08A81843008F445C080EAD1
:103080009FE080936609909367098A818C3050F0A5
:10309000888D298D30E0280F311D2536310524F02B
:1030A00084E027C08A3088F0888D298D30E0280F91
:1030B000311D253231054CF485E0888388EE93E09C
:1030C000809366099093670915C080910D26882327
:1030D00079F0612F802F05DF882351F0688D898D6D
:1030E00000DF882329F081E08093942698D95DC081
:1030F00083E088830A8F1B8F198287E08B831C8271
:1031000081E08093460951C018827ECFCE014A9655
:10311000B9D9882301F161E0CE018ED94A8D50E002
:103120009A01220F331F240F351F200F311D3595B3
:103130002795359527952A8F2B8D30E0C901880F6B
:10314000991F820F931F810F911D959587959595D6
:1031500087958B8F2AC0412F602FCE01489692D938
:10316000882301F160E0CE0167D9488D50E09A01D3
:10317000220F331F240F351F200F311D3595279542
:1031800035952795288F298D30E0C901880F991F23
:10319000820F931F810F911D959587959595879522
:1031A000898F03C087E0F812A1CFFF91EF91DF91E3
:1031B000CF91BF91AF919F918F917F916F915F91CF
:1031C0004F913F912F911F910F91FF900F900BBE48
:1031D0000F900ABE0F9009BE0F9008BE0F900FBE51
:1031E0000F901F901895E0913E248CE1E89FF0012C
:1031F0001124E556FC4D8081811109C081E090E0E9
:10320000209187272F3F29F480E090E0089581E006
:1032100090E0089580E690E00E94BF0B80930D2619
:1032200081E690E00E94BF0B80939E26882321F0C8
:1032300081E2809307266AC9089520E1E0E0F6E084
:1032400025830C949F0520E1E0E0F6E026830C94B2
:103250009F05A7E0B0E0EFE2F9E10C943E5A9091AF
:103260001126943559F420919726309198262F5F96
:103270003F4F20939726309398263EC0963459F4BA
:1032800020919526309196262F5F3F4F20939526CB
:103290003093962631C0953459F420910A26309106
:1032A0000B262F5F3F4F20930A2630930B2624C016
:1032B0009B3459F420919A2630919B262F5F3F4FE3
:1032C00020939A2630939B2617C0983459F4209166
:1032D0009C2630919D262F5F3F4F20939C26309354
:1032E0009D260AC020910826309109262F5F3F4F66
:1032F000209308263093092695E79983882399F02F
:10330000BE016E5F7F4F80919E260E94A50BBE017D
:103310006C5F7F4F80910D260E94A50B85E58E8303
:1033200096E0D92E02C0DD24D3940E94B1080E94F9
:103330002B0816E080E891E080DF80E093E083DFF7
:103340001150C1F780E093E078DF80E891E07BDF07
:1033500080E891E072DF10E11093060687E390E0C9
:103360000E943F0883E090E00E94BC05109346064F
:103370008FE70E948905809110268D0D0E94890596
:10338000EE24E394F12CEC0EFD1E8701F8018191EF
:103390008F010E948905802F8E198D15B8F306C004
:1033A0008EE096E20E94520E0E94890580911026BE
:1033B0008111F6CF80E1809345060E942B088EE0B4
:1033C00096E20E94370E15E104C081E090E00E9471
:1033D000BC058AE30E9482078F7711F01150A9F78C
:1033E00095D82796E7E00C94575ACF93DF93EC01DA
:1033F0008981811107C080910D260E94310B809137
:103400009E2613C08436A1F4809100269091012657
:10341000A0910226B091032640E364E00E94F70ADF
:103420008EE20E94700A809193260E94310B4DC05B
:10343000833709F04DC040E361E080919726909179
:1034400098260E94F70A8EE20E94700A40E361E02B
:1034500080919526909196260E94F70A8EE20E940E
:10346000700A40E361E080910A2690910B260E9449
:10347000F70A8EE20E94700A40E361E080919A268A
:1034800090919B260E94F70A8EE20E94700A40E308
:1034900061E080919C2690919D260E94F70A8EE221
:1034A0000E94700A40E361E080910826909109260D
:1034B0000E94F70A8EE20E94700A40E361E0809168
:1034C0009126909192260E94F70A0E94BD0A2CC074
:1034D0008936D9F441E06DE076E2CE0102960E9491
:1034E000350B60910D2680E690E00E94B80B41E01C
:1034F0006EE976E2CE0104960E94350B60919E261D
:1035000081E690E00E94B80B0FC08EE096E20E9428
:10351000370E219604C08EE096E20E943C0E69911F
:103520006111F9CF80E095DEDF91CF910895A1E0A0
:10353000B0E0EDE9FAE10C943D5A8091942688239D
:1035400009F48AC0C0900026D0900126E09002269F
:10355000F0900326833009F065C08FE30E94820754
:10356000182F8630E8F08CE198E20E94370E80E157
:10357000809346068FEF0E94890580E00E948905AE
:10358000082F08C080E00E948905682F8CE198E22E
:103590000E943C0E1150B1F780E18093450601C0B6
:1035A00000E00E94861210929426053709F054C05C
:1035B00041E0BE016F5F7F4F8FE198E20E94350BC3
:1035C000019759F5998180910D26981326C0809115
:1035D0002328853571F406C08CE198E20E94520ED2
:1035E0000E94700A80911E288111F6CF0E94BD0AA8
:1035F00033C080911E28845080931E2884E08093DD
:103600001D286AE08CE198E20E943C0EE091FC25C6
:10361000F091FD2588E019951FC08CE198E20E9489
:10362000370E1AC0823059F490910C268C2D891BCC
:10363000883090F00E948612109294260DC081303E
:1036400059F487E390E00E943F080E94BD0782E0A2
:1036500080939426C0920C262196E8E00C94565A4A
:10366000C2DD882361F083E08093992680919126C2
:103670009091922601968093912690939226809124
:103680009926815080939926882321F083E08093A6
:103690009326089581E0DDCDCF93DF93C0E1C09301
:1036A000410680E280930206C09345068EE190E0D9
:1036B0000E949F05C09346068EE190E00E949F0500
:1036C000C09345068DE290E00E949F0580E30E9432
:1036D000B00784E690E00E949F05809148278933D7
:1036E000D1F4C0E0D0E0FE01EC57FB4F6491FE0145
:1036F000ED57FB4F84910E9492072296C233D10569
:1037000091F783E30E94B00784E090E00E94BC053B
:103710000E94BD0726C0843389F4C0E0D0E0FE01DA
:10372000EE5AFB4F6491FE01EF5AFB4F84910E94C9
:1037300092072296C233D10591F7E3CF813309F77F
:10374000C0E0D0E0FE01E05EFB4F6491FE01E15E6F
:10375000FB4F84910E9492072296C233D10591F7C4
:10376000D0CFDF91CF910895DF92EF92FF920F9328
:103770001F93CF93DF93EC01E62E84E080938506C0
:1037800080914827893341F464E182E10E949207E5
:103790006E2D660F6D5E00C086E00E9492070E944B
:1037A0002B0880E1809346068FE70E94890580916F
:1037B0004827893321F0FC2E0C2F1D2F56C01FE007
:1037C00086E60E9489051150D9F78AEA0E94890588
:1037D00085E50E948905DC2E0C2F1D2F35C0F801D0
:1037E000F1908F01F7FE02C080E801C080E4F6FE90
:1037F00002C090E201C090E1980FF5FE02C088E09F
:1038000001C084E0890FF4FE02C092E001C091E0A3
:10381000890F0E948905F3FE02C080E801C080E4A0
:10382000F2FE02C090E201C090E1980FF1FE02C0EA
:1038300088E001C084E0890FF0FE02C092E001C080
:1038400091E0890F0E948905802F8D198E1538F21D
:1038500080E00E94890580E00E9489050AC0F80185
:1038600081918F0180950E948905802F8F198E1577
:10387000B0F380E18093450685E30E94820783319F
:10388000D9F36FEF86E00E94920780914827893331
:1038900021F46EE182E10E9492070E94BD0784E05C
:1038A000809386068D8186FF2CC0809100269091A2
:1038B0000126A0910226B09103260696A11DB11DF6
:1038C0008093492790934A27A0934B27B0934C2786
:1038D00080913F248F5F80933F24823060F08AE79D
:1038E0000E94700A82E70E94700A80913F240E9421
:1038F000310B0E94BD0A80913F24833010F010925A
:103900003F24CDB7DEB7E7E00C94575A80914024AE
:10391000882301F180913F248823D1F04091002633
:1039200050910126609102267091032680914927CB
:1039300090914A27A0914B27B0914C278417950767
:10394000A607B70728F4609147278FE996E20CCFC6
:10395000809100060895FC012181223711F02D3657
:1039600051F4FC018281811101C084E380934827D6
:103970002093402491CE233771F410923F2448EADB
:103980006FE976E202960E94350B80934727682FF5
:103990008FE996E2E9CE293671F5FC0122812223D6
:1039A00031F045E06DE477E202960C94350B80919E
:1039B00040240E94700A809148270E94700A80E289
:1039C0000E94700A80914D270E94310B80914E27F2
:1039D0000E94310B80914F270E94310B809150271C
:1039E0000E94310B80E20E94700A809151270E9450
:1039F000310B0C94BD0A109240240895CF93282FC8
:103A000080913E2090913F20C0E1C0930506213077
:103A100071F49C01220F331F820F931F0E949F0598
:103A2000C093060680913E2090913F2032C0211124
:103A300023C00E949F05C093060680913E2090916E
:103A40003F209C01220F331F820F931F0E949F056E
:103A5000C093050680913E2090913F200E949F05D3
:103A6000C093060680913E2090913F209C01220F3A
:103A7000331F820F931F22C00E949F05C09306062A
:103A800080913E2090913F209C01220F331F820F96
:103A9000931F0E949F05C093050680913E20909140
:103AA0003F209C01220F331F820F931F0E949F050E
:103AB000C093060680913E2090913F200E949F0572
:103AC000CF910895CF93DF93C0E1C093410680E288
:103AD00080930206C09345068EE190E00E949F0508
:103AE000C09346068EE190E00E949F05C093450674
:103AF0008DE290E00E949F0580E30E94B00784E67B
:103B000090E00E949F05C093460680E40E948905CC
:103B1000C5EBD4E0FE0184910E9489052196F4E072
:103B2000C23CDF07B9F7809139200E948905809156
:103B30003A200E94890580913B200E948905C0E0BF
:103B4000D0E0FE01EB53FB4F84910E948905219642
:103B5000C931D105B1F780E18093450680934606CF
:103B60008EE70E9489058BE290E0EC0121960E948D
:103B7000BF0B0E948905CE01C333D105B1F780E1A7
:103B80008093450683E30E94B00781E090E00E94A5
:103B9000BC0581E08093FE25DF91CF910895A0E0E0
:103BA000B0E0E5EDFDE10C943B5AEC0189818437EE
:103BB00069F46EE370E2CE0102960E948A0B40E245
:103BC00060E080913E2090913F2012C0833709F041
:103BD000B4C08A81823789F46CE370E2CE01039627
:103BE0000E948A0B40E260E080913C2090913D2051
:103BF0000E94C10A0E94BD0A15C184E08093850617
:103C000080914324811117C080911825882329F0C1
:103C100081E0809342241092182580911A258823F0
:103C200029F081E08093412410921A254BDF83E034
:103C300090E00E94BC0586E30E94B0078AE30E94E0
:103C4000B0078BE30E94B0070E942B0800E010E051
:103C50006E0182E0C80ED11CB0E1AB2E25C0F70189
:103C600081917F01803311F480E005C0813311F42C
:103C700081E001C082E0C2DEBA9489F7A092050615
:103C800080913E2090913F200E949F05A0920606C1
:103C9000AFE1FA2E80913E2090913F200E949F0537
:103CA000FA94C1F70F5F1F4F80913C2090913D2007
:103CB0000817190720F47601FCE0BF2ED0CF8091C1
:103CC0004324882341F08091072681110FC086E3A9
:103CD0000E94B00719C080914224882351F01092AD
:103CE00042240E94F62981E0809318250E94BD0796
:103CF0000BC080914124882329F0109241240E9416
:103D0000FE2B02C00E94861284E08093860689E61C
:103D10000E94700A83E70E94700A229611E089913E
:103D2000803309F404C0813309F401C086E40E94A1
:103D3000700A1F5F1D3099F75DCF8237B9F480910B
:103D40001825882329F081E08093422410921825B9
:103D500080911A25882329F081E0809341241092D4
:103D60001A25B0DE81E0809343245CC0863651F58D
:103D70008A81803351F480E18093392080EB8093F5
:103D80003A2081E780933B2007C043E069E370E27B
:103D9000CE0102960E94350B89E60E94700A86E6E3
:103DA0000E94700A8AE30E94700A809139200E9462
:103DB000310B80913A200E94310B80913B200E9470
:103DC000310B18CF883731F580914224882341F098
:103DD000109242240E94F62981E08093182511C098
:103DE00080914124882329F0109241240E94FE2BC7
:103DF0000EC082E090E00E943F0880910726882351
:103E000019F00E94BD0703C086E30E94B00710921C
:103E1000432408C0833631F46EE370E2CE0101968C
:103E20000E948A0BCDB7DEB7EAE00C94545AA2E0A8
:103E3000B0E0EDE1FFE10C94335A7C01FC0181819B
:103E4000833709F0BBC1198287E090E00E94645A71
:103E50008C0141E0BE016F5F7F4FC70102960E9457
:103E6000350B8981F801808341E0BE016F5F7F4F90
:103E7000C70104960E94350B2981207FF801218318
:103E800041E0BE016F5F7F4FC70106962A830E9403
:103E9000350B8981F801828341E0BE016F5F7F4F5E
:103EA000C70108960E94350B8981F801838341E0A0
:103EB000BE016F5F7F4FC7010A960E94350B898153
:103EC000F801868341E0BE016F5F7F4FC7010C960A
:103ED0000E94350B8981F801858341E0BE016F5F47
:103EE0007F4FC7010E960E94350B8981F8018483AC
:103EF00080E090E02A814191342F32953F70342741
:103F000083279F5F9730B9F78F70822BF8018183E9
:103F100087E090E00E94645A5C0187E0F801D501D7
:103F200001900D928A95E1F7D8011196C801069685
:103F3000F8013D91219123272083E817F907C9F75C
:103F400084E0809385068091462481116EC0809123
:103F50001825882329F081E08093452410921825A4
:103F600080911A25882329F081E0809344241092BF
:103F70001A25A0E1FA2EF092410680E28093020613
:103F8000F09245068EE190E00E949F05F092460671
:103F90008EE190E00E949F05F09245068DE290E050
:103FA0000E949F0580E30E94B00784E690E00E9493
:103FB0009F05F092460680E40E948905BEEDEB2E37
:103FC000B4E0FB2EF70184910E948905FFEFEF1A00
:103FD000FF0A27E0E21625E0F206A1F780E18093D0
:103FE0004506809346068EE70E9489058BE290E0A5
:103FF0007C01EFEFEE1AFE0A0E94BF0B0E948905BA
:10400000C70183339105A1F780E18093450683E3DF
:104010000E94B00781E090E00E94BC0581E080939F
:10402000FE2583E090E00E94BC0586E30E94B00775
:104030008AE30E94B0078BE30E94B0070E942B081E
:1040400070E1F72EF092050687EC94E20E949F053E
:10405000F092060689E590E00E94BC0585E392E0B7
:104060000E949F05E12CF12CE0E15E2EF0E14F2E45
:104070005DC0EE2011F027E001C022E0D12C50926B
:10408000050686EF99E02A830E949F055092060656
:1040900086EF99E00E949F05D3942A81D2167CF383
:1040A000409205068CEF92E10E949F054092060621
:1040B00080914020909141200E949F056801312C01
:1040C000F60181906F0158E0252E60E8662E712C74
:1040D000912C9301282139218091402090914120F9
:1040E000232B39F4509205060E949F055092060634
:1040F00006C0509206060E949F05509205068091C8
:104100004020909141200E949F05769467942A94C4
:1041100001F73394F7E03F12D3CF5092060680E0C8
:1041200090E00E949F052FEFE21AF20A809144204E
:1041300090E0E816F9060CF49CCF80914624882381
:1041400041F08091072681110FC086E30E94B007DD
:1041500019C080914524882351F0109245240E9473
:10416000F62981E0809318250E94BD070BC080913D
:104170004424882329F0109244240E94FE2B02C07C
:104180000E94861284E08093860689E50E94700A68
:1041900083E70E94700A750137E0D32EF701819101
:1041A0007F010E94310BDA94C9F70E94BD0AC50154
:1041B0000E94FF5AC8010E94FF5A6FC08237A9F4BB
:1041C00064E470E2C70102960E948A0B89E50E94AE
:1041D000700A82E70E94700A8AE30E94700A40E235
:1041E00060E08091442090E02CC0843779F5F7019D
:1041F0008281803339F488ED94E08093422090935B
:10420000432006C062E470E2C70102960E948A0B56
:1042100080914220909143209695879580934020ED
:104220009093412089E50E94700A84E70E94700AF9
:104230008AE30E94700A40E266E0809142209091F9
:1042400043200E94C10A0E94BD0A27C0883729F571
:1042500080914524882341F0109245240E94F6293C
:1042600081E08093182511C080914424882329F08F
:10427000109244240E94FE2B0EC082E090E00E9427
:104280003F0880910726882319F00E94BD0703C0CC
:1042900086E30E94B007109246242296E2E10C9435
:1042A0004C5ACF93DF93C0E1C093410680E28093E4
:1042B0000206C09345068EE190E00E949F05C093E0
:1042C00046068EE190E00E949F05C09345068DE270
:1042D00090E00E949F0580E30E94B00784E690E092
:1042E0000E949F05C093460680E40E948905C7E0AE
:1042F000D5E0FE0184910E9489052196F5E0C03346
:10430000DF07B9F780E180934506809346068EE784
:104310000E9489058BE290E0EC0121960E94BF0B80
:104320000E948905CE01C333D105B1F780E18093A6
:10433000450683E30E94B00781E090E00E94BC053F
:1043400081E08093FE2580935A24DF91CF910895D8
:10435000A0E0B0E0EEEAF1E20C943B5A8C018091CF
:104360005227F801838364839DE0E92EF12C20E13C
:10437000A22E0E942B0885E30E948207833169F0F8
:1043800080E395E00E94B00A85E30E9482070E94C4
:10439000310B0E94BD0A85DF4AC040910026509132
:1043A0000126609102267091032640935327509373
:1043B00054276093552770935627A09246068FE79F
:1043C0000E9489056801C0E0D0E08AEAB82EF601B3
:1043D00080810E948905C930D10544F4F6018081AD
:1043E000B826C730D10511F4F801B0862196FFEF49
:1043F000CF1ADF0ACF30D10551F7A0924506C8EC9D
:1044000085E30E948207833131F081E0E81AF108E8
:1044100009F0AFCF07C081E090E00E94BC05C15019
:1044200079F7F3CF809152278F5F80935227CDB7D2
:10443000DEB7EAE00C94545AABE3B0E0E2E2F2E219
:104440000C94395A7C01DC010D900020E9F7AD0194
:1044500041505109481B590B6C01B2E0CB0ED11CE5
:10446000BE01625D7F4FC6010E94350B082F63EAD3
:1044700072E286E490E20E94DF5CF7011181812FF5
:104480008357823008F0DCC181E08093582487850F
:104490008A3411F489E501C08EE480934520A89503
:1044A0008090002690900126A0900226B0900326CE
:1044B00040910026509101266091022670910326BA
:1044C0004093532750935427609355277093562752
:1044D00080914520893509F054C08DE395E00E9414
:1044E000B00A89E495E00E94B00AC7010E94A50ABB
:1044F00080E695E00E94B00AD7010D900020E9F710
:10450000CD01019740E260E08E199F090E94C10A27
:1045100085E795E00E94B00AF70101900020E9F7D5
:104520003197EE19FF09EE0DFF1D40E260E080813A
:1045300090E00E94C10A8DEB95E00E94B00A40E233
:1045400060E0802F90E00E94C10A85E096E00E9422
:10455000B00A88E096E00E94B00A40E364E08091EF
:104560005527909156270E94F70A40E364E0809116
:104570005327909154270E94F70A8FE196E00E94FA
:10458000B00AD7010D900020E9F75197AE15BF058D
:1045900009F03DC142E0BE01625D7F4FC6010E944D
:1045A000350B029709F033C17CDE0EA5B701665FBB
:1045B0007F4F45E050E0CE0101960E94F45C1E82E0
:1045C0004AE050E060E070E0CE0101960E949E5B00
:1045D0006B017C0133E0F694E794D794C7943A9545
:1045E000D1F7809145208935F1F482E296E00E946E
:1045F000B00ACE0101960E94A50A89E396E00E94C6
:10460000B00A80E496E00E94B00A40E364E0C7018B
:104610000E94F70A40E364E0C6010E94F70A87E5BA
:1046200096E00E94B00A8FE0E1E1F2E2DE015F96DF
:1046300001900D928A95E1F78FA588A388A989A397
:1046400089A98EA3602FCE014F9682DE133709F41D
:10465000EEC007FFECC04091532750915427609162
:104660005527709156278091002690910126A091A0
:104670000226B091032688199909AA09BB098E3729
:104680009105A105B10548F480900026909001267F
:10469000A0900226B0900326A895809100269091C4
:1046A0000126A0910226B0910326841B950BA60B30
:1046B000B70BC816D906EA06FB06A8F680900026B6
:1046C00090900126A0900226B0900326809145206C
:1046D000893509F073C08FE596E00E94B00A40E387
:1046E00064E0C5010E94F70A40E364E0C4010E944F
:1046F000F70A86E796E00E94B00A8EE796E00E94ED
:10470000B00A40E364E080915527909156270E94BB
:10471000F70A40E364E080915327909154270E9468
:10472000F70A85E996E00E94B00A8DE996E00E94BA
:10473000B00A40E364E0C7010E94F70A40E364E086
:10474000C6010E94F70A84EB96E00E94B00A8CEB47
:1047500096E00E94B00A8091002690910126A091D7
:104760000226B0910326409153275091542760911F
:10477000552770915627841B950BA60BB70B40E36A
:1047800064E0CD010E94F70A8091002690910126F5
:10479000A0910226B09103262091532730915427EF
:1047A000821B930B40E364E00E94F70A83ED96E0DE
:1047B0000E94B00A8BED96E00E94B00A67EFCE012E
:1047C0004F96C6DD4091532750915427609155274D
:1047D000709156278091002690910126A091022683
:1047E000B0910326841B950BA60BB70B4597A1052B
:1047F000B10580F380914520893521F484EE96E05F
:104800000E94B00A67EFCE014F96A2DD10C08DEE78
:1048100096E00E94B00A40E260E08EE090E00E94E4
:10482000C10A82E197E00E94B00A10925A24809156
:104830005924813011F40E94BD071092582449C0B8
:10484000123709F040C0F7018281853451F410928B
:10485000592486E30E94B0071092572486E397E01C
:104860002FC0833559F58381813311F481E003C072
:10487000823321F482E08093572402C0109257249F
:1048800081E0809359240DDD87E497E00E94B00A0F
:104890000E94BD0785E30E9482078D30D1F08AE532
:1048A00097E00E94B00A85E30E9482070E94310BC4
:1048B0000E94BD0AF6DC109259240BC083E797E0F2
:1048C0000E94B00A06C085E997E00E94B00A1092E3
:1048D0005A24EB96ECE00C94525A109272271092E4
:1048E000092583E080930A258FEF80938727089519
:1048F000EBE5F4E20EC0009751F04181DC013C9100
:10490000431305C0428111963C914317B1F0E20F69
:10491000F11D2081211105C0892B41F0E0E0F0E07C
:104920000CC0B5E2E930FB0730F3F6CF35E2E930F1
:10493000F30719F010F0E9E0F5E2CF01089594E0F3
:10494000899FF0011124E857F84D80818F3F91F045
:1049500080930B25818180930C25828180930D2586
:10496000838180930E2521E04CE064E08BE095E2AA
:104970000C94590F089581E195E2BADF009799F000
:1049800020910A25FC013081231768F4E20FF11D04
:1049900080818093132589E78093142581818093FA
:1049A000152581E0089580E00895EF92FF921F930E
:1049B000CF93DF931F92CDB7DEB7182F80910726D4
:1049C00086FF18C084E599830E94700AE12E9981C0
:1049D000F92E15E0F70181917F010E94310B1150F2
:1049E000C9F78091072685FF03C08AEF0E94310B2B
:1049F0000E94BD0A0F90DF91CF911F91FF90EF9021
:104A0000089586E30E94B00780911325833519F439
:104A10008BE990E002C08BE490E00E94BC0521E0AD
:104A20004CE065E081E195E20E94590F0E94BD07CC
:104A300081E195E2BACFE5DF80911325893631F027
:104A400081E08093102589E2809387270895CF9392
:104A500085E390E00E94BF0B8093582786E390E0A7
:104A60000E94BF0B80938627CFEFC0937627C09319
:104A70007827C0937A27C0937C27C0937E27C09362
:104A80008027C0938227C093842727DF10925B245E
:104A900081E080935727C09388278FEF9FEF809303
:104AA0005A2790935B2710925C2710925D271092F3
:104AB0005E2710925F27C0938C2780936027909386
:104AC0006127109262271092632710926427109238
:104AD0006527C0939027809366279093672710924D
:104AE00068271092692710926A2710926B27C0934B
:104AF000942780936C2790936D2710926E271092C5
:104B00006F271092702710927127CF910895ACE013
:104B1000B0E0EDE8F5E20C943C5A6C018C010F5FBB
:104B20001F4F45E0BE016F5F7F4FC8010E94350BEC
:104B3000843008F0F4C099819130A9F4833061F495
:104B40006A8185E390E00E94B80B6B8186E390E078
:104B50000E94B80B7CDF09C2809158270E94310B5C
:104B6000809186279BC0923009F052C0813041F07D
:104B700081E090E02A81213029F080E090E002C0BD
:104B800081E090E0E82E80915B24811104C088ECE4
:104B900097E00E94B00A0BE514E230C034E20B3516
:104BA000130719F080E20E94700AF80181810E94C7
:104BB000310BF80182810E94310BE11005C0F80130
:104BC0008081080F111D1AC08AE30E94700A93E0C9
:104BD000F92E0FC0F3E0FF1528F4F0FE03C08CE2BD
:104BE0000E94700AF801EF0DF11DF39480810E947C
:104BF000310BF8018081F81668F3E1CFF80180816C
:104C0000882309F489C0F5E209301F0738F284C00F
:104C1000933049F480E090E06BDE8B5594429EEA3D
:104C2000981B892F3BC0903171F506E717E287E7A3
:104C3000E82E87E2F82EC12CD12CF80180818F3F1D
:104C4000A1F0DD2019F080E20E94700A8C2D0E94F4
:104C5000310B8AE30E94700AF80180810E94310BB7
:104C6000F70180810E94310BD3940E5F1F4FC394D4
:104C7000F2E0EF0EF11C38E0C312DFCFD1104CC0D0
:104C80008AEB97E047C0913161F48091742790914D
:104C900075276DE770E00E94E459862F0E94310B62
:104CA0003BC09231C9F518E8E12E17E2F12E0BE86E
:104CB00017E2C12CD12CF70180818F3FF1F0DD206C
:104CC00019F080E20E94700A8C2D0E94310B8AE359
:104CD0000E94700AF70180810E94310BF80132971F
:104CE00080810E94310BF801319780810E94310B45
:104CF000F80180810E94310BD394F4E0EF0EF11C97
:104D0000C3940C5F1F4F34E0C312D5CFD11004C041
:104D10008EEB97E00E94B00A0E94BD0A26C144E0D3
:104D2000BE01695F7F4FC8010E94350B4F81493634
:104D300008F479C05A85688579855C3009F04DC0E2
:104D400020E030E080E090E0F901E857F84D508134
:104D500054131CC0A181A61319C0A281A71316C0A9
:104D60002CE023839C01220F331F280F391FF901E8
:104D7000EE0FFF1FE65AF84D10821182F901EE0F77
:104D8000FF1FE45AF84D10821182D1C05F3FE9F451
:104D9000408328852183298522832CE023839C015D
:104DA000220F331F280F391FF901EE0FFF1FE65A9C
:104DB000F84D10821182F901EE0FFF1FE45AF84DF1
:104DC0001082118210925727B2C001962C5F3F4F7C
:104DD0002031310509F0B8CFC8C080E090E020E074
:104DE00030E0FC01E857F84DA081A41315C0A18163
:104DF000A61312C0A281A7130FC05383F901EE0FAF
:104E0000FF1FE20FF31FEE0FFF1FE45AF84D81E082
:104E100090E080839183A9C02F5F3F4F049680313B
:104E20009105F9F6A2C0E98180915827E817C8F1E9
:104E300090E0F0E09C01295F3F4F2E173F078CF177
:104E40003A812091862732132CC02C812F3231F4E5
:104E500042E06CE0C6010E94C90F87C02C32B9F451
:104E60002D812093732781E090E0809374279093A5
:104E700075278091042690910526E4E02E9F800DF1
:104E8000911D112480930426909305266EC0E81B83
:104E9000F90BEE0FF0E0EA58F84D20838D81818305
:104EA00064C080E090E024DD7C01F80101900020E6
:104EB000E9F73197E01BF10BF695E795BE2EB39419
:104EC000C7018B0D911D8B5594428F3A91050CF0C3
:104ED00048C0F701B1928F0121E01AC041E0B8014A
:104EE000F601E80FF11DCF012C870E94350B2C85B0
:104EF000233058F020FD09C0D80111978C918436D9
:104F000021F4F8018081809359272F5F0F5F1F4F95
:104F1000822F880F81502B1508F3F9E0EF16F5E288
:104F2000FF0618F5F701E20FF11D10821EC022E006
:104F30004CE064E0CE0107960E94590F8FE08A870B
:104F400022E04CE064E0CE0107960E94590F82E017
:104F50008A8722E04CE064E0CE0107960E94590F58
:104F600004C082EC97E00E94B00A2C96E9E00C9411
:104F7000555A0F931F93CF93DF9390915727911119
:104F80004BC093E0899F80011124F801EE0FFF1FB1
:104F9000E65AF84D94E0899FD0011124A857B84DE6
:104FA00012969C91977046E0949F9001391B1124B2
:104FB0003358359527953595279520833183E8011A
:104FC000CC0FDD1FC25AD84D288139812F5F3F4F4A
:104FD00028833983000F111F045A184DF8014081AE
:104FE00051814115510529F424303105A9F4A7DC7C
:104FF00011C04130510539F4A2DC82E090E0F801A3
:105000008083918309C04230510531F498DCF80166
:105010001082118218821982DF91CF911F910F9116
:105020000895A6E0B0E0E7E1F8E20C943F5A8091E1
:1050300086278A831B8290917327992341F09330AE
:1050400019F487E791E00CC08DE790E009C0877004
:105050002DE7829FC0011124825B9F48959587951B
:10506000809374279093752707E717E2F12C7CE271
:10507000E72EF801319790819F3FC1F0809158272A
:105080008F0D898380917327882311F0EC8203C0F0
:105090009C83F80180818D8321E04CE065E0CE01A6
:1050A00001960E94590FCE0101967FDCF3940E5FAA
:1050B0001F4FF8E0FF12DDCF80917327882341F066
:1050C000833019F41092732703C0825080937327A2
:1050D0002696E6E00C94585A80911025882351F0CA
:1050E00090DC89E2809387278091102581508093FE
:1050F00010250895F2CBFF920F931F93CF93DF9368
:10510000FC01F0800181C281D38114818FE58093FD
:1051100087271092102580915827811105C0809112
:105120008627882309F4ABC0809111258F1104C014
:1051300080911225801729F0D0DBF0921125009381
:105140001225809172278F3F09F499C0C0931325CF
:10515000D093142510931525CC23F1F081111CC098
:1051600080915827181761F0143651F08C2F835511
:10517000823010F0CD3739F48FEF809372277FC0E3
:10518000C43509F47CC08D2F807F803609F077C04C
:10519000D067D093142567C0EEDB811105C08091E4
:1051A0007227882309F46BC080910925811107C0FB
:1051B000E0917227F0E0E455F84FE49101C0E82F48
:1051C000E33541F4C43531F4909172279E5F90939A
:1051D000722704C0EC1711F080DB51C0882309F45A
:1051E00044C080910A258E5F80930A25C4DB81111B
:1051F00006C0809172278E5F8093722736C080919F
:10520000132580930925843671F580915927809361
:10521000152529C01093132597E790931425909195
:105220005827909315258E5F809372271092092539
:105230008E30B9F481E195E25BDBDC01009781F00F
:105240002C9130E089E095E2821B930B05C0ED01C3
:10525000C20FD31F48814D93A817B907C0F31C9202
:105260003CDB112361F0E7DB0AC080917227E82F55
:10527000F0E0E355F84F14911F3F61F6C0CFCDB772
:10528000DEB7E5E00C94595A0F931F93CF93DF9349
:10529000EC01A82FBD2FFD0101900020E9F7319707
:1052A000EA1BFB0B8981823751F487E390E00E946F
:1052B0003F080E94BD0781E0809398272AC083376A
:1052C00031F50E2F80E1809346068FE70E94890515
:1052D000802F82500E948905229612E004C0899195
:1052E0000E9489051F5F1017D0F380E18093450667
:1052F0000E942B0804C081E090E00E94BC058AE374
:105300000E9482078F77B9F70E94BD0702C01092F2
:105310009827DF91CF911F910F910895A0E8B0E0F9
:10532000E4E9F9E20C943D5A80919827882309F426
:1053300058C0813011F58091002690910126A091EE
:105340000226B091032620911725281709F449C099
:1053500085E30E948207813129F48AE30E94B00725
:105360000E94BD078091002690910126A0910226FF
:10537000B09103268093172534C08FE30E948207E3
:10538000D82E87FD2BC080E1809346068FEF0E94C8
:1053900089058E010F5F1F4F7801C02E06C080E087
:1053A0000E948905F70181937F018E2D8C198D153F
:1053B000B0F380E18093450681E08093952305C09A
:1053C000F80181918F010E94700A802F8C198D1530
:1053D000B8F30E94BD0A8FEF8093952381E08093FC
:1053E0009827C058DF4FE8E00C94565ACF93DF93CC
:1053F000C0E1C093410680E280930206C093450657
:105400008EE190E00E949F05C09346068EE190E0F9
:105410000E949F05C09345068DE290E00E949F0583
:1054200080E30E94B00784E690E00E949F05C0E000
:10543000D0E0FE01ED51F84F6491FE01EE51F84FBE
:1054400084910E9492072296C233D10591F78091F0
:105450001925811108C083E30E94B00784E090E021
:105460000E94BC0511C0C0E0D0E0FE01E353F84F3C
:105470006491FE01E453F84F84910E9492072296B2
:10548000C631D10591F7E7CF84E30E94B00785E3E9
:105490000E9482078D30C1F7DF91CF910895A2E37A
:1054A000B0E0E5E5FAE20C94415A80911825882392
:1054B00009F4A9C00E949805882309F48FC08FE3DE
:1054C0000E9482078F778983823368F08AE30E9483
:1054D000B00786E30E94B0078DE30E94B00784E323
:1054E0000E94B00790C080E1809346068FEF0E9433
:1054F000890510E00BC080E00E948905E2E0F0E041
:10550000EC0FFD1FE10FF11D80831F5F89811817CC
:1055100090F380E00E948905082F80E00E948905B1
:1055200080E18093450684E30E94B00785E30E94F2
:1055300082078D30C1F72A8196E792279A8392E0FD
:105540000CC041E050E04C0F5D1FE40FF51F3081AF
:105550002452232720839F5F232F8981E92FF0E0A6
:10556000981778F381E090E08C0F9D1FE80FF91FEA
:1055700090818B81982790838091072684FF13C0A8
:1055800081E60E94700A10E00AC0E1E0F0E0EC0F52
:10559000FD1FE10FF11D80810E94700A1F5F89814C
:1055A000811798F71BC081E40E94700A10E00AC0BE
:1055B000E1E0F0E0EC0FFD1FE10FF11D80810E94A2
:1055C000310B1F5F8981811798F78091072685FF2E
:1055D00003C0802F0E94310B0E94BD0A85E30E9408
:1055E0008207813029F0813161F48AE30E94B0079B
:1055F00086E30E94B0078DE30E94B00784E30E9417
:10560000B0070E94F608E296E4E00C945A5A8F9292
:105610009F92AF92BF92FF920F931F93CF93DF930E
:10562000CDB7DEB7EA97CDBFDEBF41E3BE016F5F06
:105630007F4F01960E94350B8C0199270197298194
:1056400030E08217930709F0B4C0809118258111CA
:1056500005C0CCDE83E090E00E94BC05FB808A811F
:1056600096E789278A8322E009C0DE01A80FB91FC7
:105670008C9184529081892780832F5F3981822F7A
:1056800090E0E1E0F0E0EC0FFD1FE80FF91F2317B9
:1056900060F380818F258083CE01C7960E946309C5
:1056A00085E30E94B00785E30E948207833181F180
:1056B000CE01C3960E9463094BA95CA96DA97EA97E
:1056C0008FA998ADA9ADBAAD84179507A607B707FE
:1056D00060F44A015B01881A990AAA0ABB0A2DEBF9
:1056E00082169104A104B10470F4481759076A079F
:1056F0007B0770F484549F4FAF4FBF4F84179507BB
:10570000A607B70728F484E198E00E94B00A34C0E5
:1057100085E30E948207833119F6F4FE0BC088E707
:1057200090E00E94BC0588E790E00E94BC0588E7F5
:1057300090E002C08AE090E00E94BC0580E1809386
:1057400046068FE70E94890588248394912C8C0E4D
:105750009D1E540105C0F50181915F010E948905DC
:105760008A2D88198017B8F380E18093450685E378
:105770000E9482078331D9F385E30E948207863134
:1057800049F48BE30E94B00786E30E94B0078DE3E3
:105790000E94B00780911825882349F084E30E9475
:1057A000B00785E30E9482078D30C1F702C00E94D6
:1057B0008612EA96CDBFDEBFDF91CF911F910F9188
:1057C000FF90BF90AF909F908F900895FC01218132
:1057D000223731F0223559F481E08093192502C037
:1057E0001092192503DE81E0809318250895233750
:1057F00011F401960CCF109218250895CF93DF93E2
:10580000C0E1C093410680E280930206C093450642
:105810008EE190E00E949F05C09346068EE190E0E5
:105820000E949F05C09345068DE290E00E949F056F
:1058300080E30E94B00784E690E00E94BC05C0E0CF
:10584000D0E0FE01E25EF74F8491813448F083E3BB
:105850000E94B00784E090E00E94BC05CFEF0BC02F
:10586000FE01E15EF74F64910E9492072296CC33CD
:10587000D10539F7ECCF84E30E94B0078AE090E0CD
:105880000E949F05C150B9F781E080931A25DF91EE
:10589000CF910895EF92FF920F931F93CF93DF93D1
:1058A000EC018B01F880F3946115710519F0E4E6C1
:1058B000F0E002C0E0E0F0E028E0F29EC001112438
:1058C0006AE070E00E94F8599B012E0F3F1FC9014A
:1058D000AA2797FDA095BA2FE0910426F0910526FE
:1058E000AF0160E070E0481759076A077B0728F4AA
:1058F00083E698E00E94B00ADDC0E21BF30BE09360
:105900000426F093052680911A25811101C076DFC7
:1059100085E30E9482078D3071F08AE50E94700A4B
:1059200085E40E94700A82E50E94700A82E50E9466
:10593000700A81E34DC08091212590912225A0918C
:105940002325B0912425892B8A2B8B2B69F40E9467
:105950002B0885E30E948207833109F444C02BC0E1
:1059600081E090E00E94BC05809100269091012684
:10597000A0910226B0910326409121255091222525
:10598000609123257091242584179507A607B707F2
:1059900039F38091002690910126A0910226B091C2
:1059A00003264F5F5F4F6F4F7F4F84179507A60702
:1059B000B707B1F2CCCF8AE50E94700A85E40E9455
:1059C000700A82E50E94700A82E50E94700A82E3F2
:1059D0000E94700A85E30E9482070E94310B0E9498
:1059E000BD0A0CDF67C0012B51F480E180934606AD
:1059F0008FE70E948905EC2E0C2F1D2F0FC00AE0A7
:105A000010E084E690E00E94BC0501501109C9F73E
:105A1000ECCFF80181918F010E948905802F8E19AA
:105A20008F15B8F380E180934506C8EC85E30E94AA
:105A300082078D3031F485E30E9482078D3069F44E
:105A400023C085E30E9482078331A9F781E090E0BB
:105A50000E94BC05C15051F7EECF8AE50E94700A42
:105A600085E40E94700A82E50E94700A82E50E9425
:105A7000700A83E30E94700A85E30E9482070E94F5
:105A8000310B0E94BD0ABADE80911A25811102C035
:105A90000E9486128091002690910126A0910226F4
:105AA000B09103268093212590932225A09323254E
:105AB000B0932425CDB7DEB7E6E00C94585AACE09D
:105AC000B0E0E5E6FDE20C94405AFC018BE08983EE
:105AD00081818A831B8282E08C8387818D8380858C
